:020000040802F0
:100000003DB8F396000000000002000048EB00003D
:1000100000000000010200000000000000000000DD
:1000200000000000000000000000000000000000D0
:1000300000000000000000000000000000000000C0
:1000400000000000000000000000000000000000B0
:1000500000000000000000000000000000000000A0
:100060000000000000000000000000000000000090
:100070000000000000000000000000000000000080
:100080000000000000000000000000000000000070
:100090000000000000000000000000000000000060
:1000A0000000000000000000000000000000000050
:1000B0000000000000000000000000000000000040
:1000C0000000000000000000000000000000000030
:1000D0000000000000000000000000000000000020
:1000E0000000000000000000000000000000000010
:1000F0000000000000000000000000000000000000
:1001000000000000000000000000000000000000EF
:1001100000000000000000000000000000000000DF
:1001200000000000000000000000000000000000CF
:1001300000000000000000000000000000000000BF
:1001400000000000000000000000000000000000AF
:10015000000000000000000000000000000000009F
:10016000000000000000000000000000000000008F
:10017000000000000000000000000000000000007F
:10018000000000000000000000000000000000006F
:10019000000000000000000000000000000000005F
:1001A000000000000000000000000000000000004F
:1001B000000000000000000000000000000000003F
:1001C000000000000000000000000000000000002F
:1001D000000000000000000000000000000000001F
:1001E000000000000000000000000000000000000F
:1001F00000000000000000000000000000000000FF
:1002000060420020F95C02088FA702089D5B02088B
:100210009D5B02089D5B02089D5B02089D5B0208D6
:100220009D5B02089D5B02089D5B02081D58020849
:100230009D5B02089D5B0208C5570208E95502084C
:10024000D15C0208D15C0208D15C0208D15C0208D2
:10025000D15C0208D15C0208D15C0208D15C0208C2
:10026000D15C0208D15C0208D15C0208D15C0208B2
:10027000D15C0208D15C0208D15C0208D15C0208A2
:10028000D15C0208D15C0208D15C0208D15C020892
:10029000D15C0208D15C0208D15C0208D15C020882
:1002A000D15C0208D15C0208D15C0208D15C020872
:1002B000D15C0208D15C0208D15C0208D15C020862
:1002C000D15C0208D15C0208D15C0208D15C020852
:1002D000D15C0208D15C0208D15C0208D15C020842
:1002E000D15C0208D15C0208D15C0208D15C020832
:1002F000D15C0208D15C0208D15C0208D15C020822
:10030000D15C0208D15C0208D15C0208D15C020811
:10031000D15C0208D15C0208D15C0208D15C020801
:10032000D15C0208D15C0208D15C0208D15C0208F1
:10033000D15C0208D15C0208D15C0208D15C0208E1
:10034000D15C0208D15C0208D15C0208D15C0208D1
:10035000D15C0208D15C0208D15C0208D15C0208C1
:10036000D15C0208D15C0208D15C0208D15C0208B1
:10037000D15C0208D15C0208D15C0208D15C0208A1
:10038000D15C0208D15C0208D15C0208D15C020891
:10039000D15C0208D15C0208D15C0208D15C020881
:1003A000D15C0208D15C0208D15C0208D15C020871
:1003B000D15C0208D15C0208D15C0208D15C020861
:1003C000D15C0208D15C0208D15C0208D15C020851
:1003D000D15C0208D15C020880F0004002E000BF5E
:1003E00081F0004142001FBF5FEA410392EA030F20
:1003F0007FEA226C7FEA236C6AD04FEA1262D2EB6A
:100400001363C1BFD218414048404140B8BF5B426E
:10041000192B88BF704710F0004F40F4000020F007
:100420007F4018BF404211F0004F41F4000121F01D
:100430007F4118BF494292EA030F3FD0A2F1010267
:1004400041FA03FC10EB0C00C3F1200301FA03F1A5
:1004500000F0004302D5494260EB4000B0F5000FC8
:1004600013D3B0F1807F06D340084FEA310102F187
:100470000102FE2A51D2B1F1004F40EBC25008BF39
:1004800020F0010040EA03007047490040EB000003
:1004900010F4000FA2F10102EDD1B0FA80FCACF132
:1004A000080CB2EB0C0200FA0CF0AABF00EBC25031
:1004B00052421843BCBFD0401843704792F0000F1F
:1004C00081F4000106BF80F400000132013BB5E772
:1004D0004FEA41037FEA226C18BF7FEA236C21D0E8
:1004E00092EA030F04D092F0000F08BF084670474D
:1004F00090EA010F1CBF0020704712F07F4F04D11B
:10050000400028BF40F00040704712F100723CBF2D
:1005100000F50000704700F0004343F0FE4040F457
:10052000000070477FEA226216BF08467FEA236315
:100530000146420206BF5FEA412390EA010F40F400
:10054000800070474FF0000304E000BF10F000434C
:1005500048BF40425FEA000C08BF704743F0964333
:1005600001464FF000001CE050EA010208BF70474E
:100570004FF000030AE000BF50EA010208BF7047D5
:1005800011F0004302D5404261EB41015FEA010CEA
:1005900002BF84460146002043F0B64308BFA3F1E2
:1005A0008053A3F50003BCFA8CF2083AA3EBC253C4
:1005B00010DB01FA02FC634400FA02FCC2F12002E3
:1005C000BCF1004F20FA02F243EB020008BF20F01A
:1005D0000100704702F1200201FA02FCC2F1200280
:1005E00050EA4C0021FA02F243EB020008BF20EA75
:1005F000DC7070474FF0FF0C1CEAD0521EBF1CEAA3
:10060000D15392EA0C0F93EA0C0F6FD01A4480EA90
:10061000010C400218BF5FEA41211ED04FF0006379
:1006200043EA501043EA5111A0FB01310CF00040A5
:10063000B1F5000F3EBF490041EAD3715B0040EACB
:10064000010062F17F02FD2A1DD8B3F1004F40EB9B
:10065000C25008BF20F00100704790F0000F0CF06E
:10066000004C08BF49024CEA502040EA51207F3A32
:10067000C2BFD2F1FF0340EAC250704740F400000D
:100680004FF00003013A5DDC12F1190FDCBF00F0FE
:1006900000407047C2F10002410021FA02F1C2F1AC
:1006A000200200FA02FC5FEA310040F1000053EA48
:1006B0004C0308BF20EADC70704792F0000F00F096
:1006C000004C02BF400010F4000F013AF9D040EA9C
:1006D0000C0093F0000F01F0004C02BF490011F430
:1006E000000F013BF9D041EA0C018FE70CEAD1532E
:1006F00092EA0C0F18BF93EA0C0F0AD030F0004CAE
:1007000018BF31F0004CD8D180EA010000F0004061
:10071000704790F0000F17BF90F0004F084691F01F
:10072000000F91F0004F14D092EA0C0F01D1420259
:100730000FD193EA0C0F03D14B0218BF084608D122
:1007400080EA010000F0004040F0FE4040F400006C
:10075000704740F0FE4040F4400070474FF0FF0CFF
:100760001CEAD0521EBF1CEAD15392EA0C0F93EA46
:100770000C0F69D0A2EB030280EA010C49024FEA98
:10078000402037D04FF0805343EA111143EA101351
:100790000CF000408B4238BF5B0042F17D024FF409
:1007A000000C8B4224BF5B1A40EA0C00B3EB510FE4
:1007B00024BFA3EB510340EA5C00B3EB910F24BFCD
:1007C000A3EB910340EA9C00B3EBD10F24BFA3EB52
:1007D000D10340EADC001B0118BF5FEA1C1CE0D11A
:1007E000FD2A3FF650AF8B4240EBC25008BF20F0CD
:1007F000010070470CF0004C4CEA50207F32C2BF21
:10080000D2F1FF0340EAC250704740F400004FF0BD
:100810000003013A37E792F0000F00F0004C02BFEE
:10082000400010F4000F013AF9D040EA0C0093F0B8
:10083000000F01F0004C02BF490011F4000F013B12
:10084000F9D041EA0C0195E70CEAD15392EA0C0F7A
:1008500008D142027FF47DAF93EA0C0F7FF470AFB2
:10086000084676E793EA0C0F04D14B023FF44CAFF5
:1008700008466EE730F0004C18BF31F0004CCAD18A
:1008800030F000427FF45CAF31F000437FF43CAFC6
:100890005FE700BF4FF0FF3C06E000BF4FF0010CE8
:1008A00002E000BF4FF0010C4DF804CD4FEA4002CA
:1008B0004FEA41037FEA226C18BF7FEA236C11D014
:1008C00001B052EA530C18BF90EA010F58BFB2EBC7
:1008D000030088BFC81738BF6FEAE17018BF40F047
:1008E000010070477FEA226C02D15FEA402C05D1FB
:1008F0007FEA236CE4D15FEA412CE1D05DF8040B80
:10090000704700BF844608466146FFE70FB5FFF712
:10091000C9FF002848BF10F1000F0FBD4DF808EDCA
:10092000FFF7F4FF0CBF012000205DF808FB00BFBB
:100930004DF808EDFFF7EAFF34BF012000205DF815
:1009400008FB00BF4DF808EDFFF7E0FF94BF012062
:1009500000205DF808FB00BF4DF808EDFFF7D2FF5F
:1009600094BF012000205DF808FB00BF4DF808EDA2
:10097000FFF7C8FF34BF012000205DF808FB00BF6F
:1009800042000ED2B2F1FE4F0BD34FF09E03B3EBF9
:10099000126209D44FEA002343F0004323FA02F025
:1009A00070474FF00000704712F1610F01D1420211
:1009B00002D14FF0FF3070474FF00000704700BF8A
:1009C00053B94AB9002908BF00281CBF4FF0FF31B6
:1009D0004FF0FF3000F00CB8ADF1080C6DE904CE1B
:1009E00000F008F8DDF804E0DDE9022304B0704708
:1009F000704700BF2DE9F04F099F154604468E460B
:100A00001E46002B40F0CC808A42B2FA82FC4CD9C0
:100A1000BCF1000F0BD0CCF1200801FA0CFE20FA3B
:100A200008F802FA0CF548EA0E0E00FA0CF44FEA48
:100A300015491FFA85F8BEFBF9FA210C09FB1AE3E8
:100A40000AFB08FB41EA03439B452AD9EB180AF14C
:100A5000FF3004D29B4502D9AAF102002B44A3EB3C
:100A60000B03A4B2B3FBF9F209FB123302FB08F843
:100A700044EA0344A04516D92C1902F1FF3303D2EE
:100A8000A04501D9931E2C44A4EB080443EA00407E
:100A900027B124FA0CF400233C607B603146BDE8AA
:100AA000F08F5046DBE71346EEE702B9FFDEBCF1FC
:100AB000000F2ED18B1A01264FEA154EAAB2B3FBB6
:100AC000FEF8210C0EFB183308FB02F941EA034340
:100AD000994561D9EB1808F1FF3004D2994502D944
:100AE000A8F102002B44A3EB0903A4B2B3FBFEF16F
:100AF0000EFB11334A4344EA0344A2424ED92C1957
:100B000001F1FF3303D2A24201D98B1E2C44A41A57
:100B1000BCE7CCF1200E02FA0CF521FA0EF901FA2D
:100B20000CF320FA0EFE4EEA03034FEA154800FAD2
:100B30000CF4B9FBF8F11FFA85FE08FB1192180CB2
:100B400001FB0EF640EA0242964221D9AA1801F1B1
:100B5000FF3003D2964201D9881E2A44921B9BB2D1
:100B6000B2FBF8F908FB192209FB0EFE43EA024327
:100B70009E450FD9EB1809F1FF3604D29E4502D9E4
:100B8000A9F102062B44A3EB0E0346EA004693E7C5
:100B90000846E3E74E46F6E74046A4E70B46B6E7CD
:100BA0008B4205D90FB1C7E900010026304675E731
:100BB000B3FA83FCBCF1000F0FD18B4201D3824208
:100BC00009D8841A61EB030E0120002F6AD0C7E90F
:100BD000004E002662E76046F7E7CCF1200E03FAEC
:100BE0000CF322FA0EF521FA0EF41D4301FA0CF370
:100BF00020FA0EF10B434FEA154A00FA0CF6B4FB4B
:100C0000FAF91FFA85F80AFB19401C0C09FB08F1D8
:100C100044EA0044A14202FA0CF23FD92C1909F12E
:100C2000FF3004D2A14202D9A9F102002C44641A77
:100C30009BB2B4FBFAF90AFB194409FB08F843EA32
:100C4000044188452CD9691809F1FF3304D288453D
:100C500002D9A9F10203294443EA0040A1EB0801AB
:100C6000A0FB02894945C2464C4602D306D14645FF
:100C700004D2B8EB020A69EB0504013897B1B6EB70
:100C80000A0361EB040606FA0EFE23FA0CF34EEAA1
:100C9000030326FA0CF6C7E900369AE74846C6E78A
:100CA0004B46D9E73E46F9E60146014807F0ABBCA2
:100CB000D887002070B58EB006AC16680546202295
:100CC0000021204609F0ECFE0122009202230D498A
:100CD000204605F0DBFC204609F06FFE0146204669
:100CE00007F066FB084B094ACDE90303084B009364
:100CF0002846CDE90164074B002108F09DFB002048
:100D00000EB070BD25D2020844D2020830D20208CB
:100D100065DB02082ED202081FB5074B0293136849
:100D20000193064B0093064A064B002108F084FB12
:100D3000002005B05DF804FB44D2020865DB020820
:100D400046D202082ED202081FB50B4B029313683D
:100D500001930A4B0A4A009300210A4B08F06CFBEE
:100D60004FF47A7006F0ECFE012004F097F90020B1
:100D700005B05DF804FB00BF44D2020865DB020841
:100D800046D202082ED2020808B50949094800F0E7
:100D9000ABFE10B1084807F0F2FF084807F03CF836
:100DA000074A0849084807F0EAFF002008BD00BFCD
:100DB000CED10208D8870020D5D1020874000020C7
:100DC00044D202082ED20208FBD102082DE9F041DC
:100DD000154F164E3968164D86B000248046CDE971
:100DE0000444D1B1084600F08FF80822014604A857
:100DF00009F02CFE082104A83F6807F0D9FACDE9D4
:100E00000057CDE902060B4B0B4A2146404608F03D
:100E100013FB002006B0BDE8F081CDE90056054B7C
:100E2000064A08F009FBF4E73402002044D2020825
:100E300065DB02082ED2020803D202081AD2020889
:100E40000A460146014806F00BBB00BFE0920020B5
:100E500030B585B005F0FEFD01F054FF044628B121
:100E6000154807F08CFF204605B030BD01F02EFF7D
:100E700001380128F7D8114806F01AF902238DF835
:100E80000C3041F2883301930D4B02934368009478
:100E90009B686946054698470A4806F0BDFE0A4821
:100EA00006F0BAFE4FF47A6006F04AFE6B68002145
:100EB000DB6828469847F5E7B2D10208C9D1020895
:100EC0002D8302086C9200209C9200203138C0B221
:100ED00035289ABF014B185C002070473AD30208AE
:100EE00030B5084D00238B4201DB104630BDC45C99
:100EF00084EA1224013335F8144084EA022292B2C3
:100F0000F1E700BFACCF020810B5094C1C2220FA53
:100F100002F101F00F014BB2092994BF303357336E
:100F2000043A04F8013B131DF1D1014810BD00BF84
:100F30003C10002010B5094C0C2240FA02F101F0DF
:100F40000F014BB2092994BF30335733043A04F8E8
:100F5000013B131DF1D1014810BD00BF4411002019
:100F60002DE9F04385B0002307460E4610460DF1EB
:100F70000601ADF8063007F0F4F90546002838D12F
:100F8000304609F01AFDBDF806200146304607F04C
:100F900013FA80BB06F1FF3807F1080918F8014F72
:100FA000E4B91649386809F00FFD80B9304602945B
:100FB0008DF80C4007F054FA114A0346052102A8A7
:100FC00005F04CFB02AE083716F8011B61B9002D85
:100FD00018BF0424204605B0BDE8F08321464846EA
:100FE00007F018FA0544D9E7384607F013FA054424
:100FF000EAE70224EEE70324ECE700BFD3DA0208B5
:1010000089D40208012A7FB505460C460D4E0DD144
:1010100007F056FA2B68009301960B4B0B4A002100
:10102000204608F009FA002004B070BD01230296A2
:10103000019303680093064A034B0021204608F001
:10104000FBF9F0E744D202082ED2020890D402083D
:1010500099D40208F0B5012A85B004460D46184E11
:1010600028D10A9809F0A9FC0A990246204607F0FF
:1010700057FA6768384609F0A0FC39460246204610
:1010800007F04EFA2368014650B1042202960192FD
:1010900000930C4A0C4B0021284608F0CDF906E0DD
:1010A000CDE90036094A084B284608F0C5F900206A
:1010B00005B0F0BD0123029601930368E8E700BF85
:1010C00044D20208CDD402082ED20208DBD4020892
:1010D00070B586B000240E460DF116010546ADF838
:1010E000164007F0C7F9094B0393BDF81630029379
:1010F00005F1140301932B6800933046044B054A15
:10110000214608F099F9204606B070BD44D2020885
:101110002ED20208BAD40208012A7FB505460C4631
:101120000D4E0DD107F0D6F92B68009301960B4BAD
:101130000B4A0021204608F07FF9002004B070BD62
:1011400001230296019303680093064A034B002192
:10115000204608F071F9F0E744D202082ED20208C6
:10116000A5D40208AED40208032A2DE9FF410446A3
:101170000D46194E2BD1D3E90112FFF7F1FE18B13C
:10118000CDE9010623680FE0D4F80480404609F059
:1011900014FC41460246204607F0C2F92368014686
:1011A00050B104220296019200930C4A0C4B00218C
:1011B000284608F041F906E0CDE90036094A084B17
:1011C000284608F039F9002004B0BDE8F081012379
:1011D00002960193D6E700BF44D20208E6D4020883
:1011E0002ED20208F2D402088B07F0B540D18B084A
:1011F00003EB43034418136014F8015C1D4E3D2DAE
:1012000004BF03F1FF33136014F8023C1A4D3D2B69
:1012100002BF136803F1FF3313600446231A8B42A5
:1012200001D30120F0BD23786278A7783D2B14BF4D
:10123000F35C00233D2A14BFB25C00223D2F18BF8F
:1012400016F807C0E77808BF4FF0000C12033D2FD7
:1012500002EB834314BFF75D002703EB8C133B4481
:101260001A0C2A701A0A6A70AB7004340335D5E779
:101270000020D7E789D30208441000202DE9F0416F
:1012800086B00027032A05460C4698460597224E4D
:101290003DD1D3E9011207F027F938B1CDE90106B4
:1012A0002B6800931D4A1E4B394620E0D8F8047085
:1012B000384609F082FB05AA01463846FFF794FF3D
:1012C000074628B1059A1749284607F029F9074625
:1012D0004FF480720021134809F0B8FB2B6857B116
:1012E0000422CDE900320E4B0C4A02960021204622
:1012F00008F0A2F807E0CDE900360B4A084B394662
:10130000204608F099F8002006B0BDE8F0810123DE
:1013100002960193C4E700BF44D2020870D30208CA
:101320002ED20208441000207ED30208044B012272
:1013300083F83C2440F2F112A3F81822704700BF52
:10134000EC870020044B022283F83C2440F2FB127D
:10135000A3F81822704700BFEC870020014B93F8D8
:101360003C047047EC87002030B597B00446282233
:10137000002102A809F094FB282200210CA809F002
:101380008FFB14F1820F304D30DC14F1870F42DAFD
:1013900014F1990F08DC14F19A0F09DA14F19F0F78
:1013A0003CD06FF0850337E004F19703012BF8D8A8
:1013B000B5F83834009304F11403244A28210CA80A
:1013C00002F07AF80CA809F0F8FA01460CA807F028
:1013D000C3F80CAB00901E4A282102A802F06CF85A
:1013E000D5F8403402A8984717B030BDA12C1AD0C8
:1013F00007DC84B1A02CD4D1B5F838340093002395
:10140000DBE7A32C1DD016DBA52CCAD108F0F6FE15
:10141000104A03460AE023460F4A07E0B5F838347D
:1014200000932346C9E70D4A4FF4007328210CA806
:1014300002F042F8C6E70A4A28210CA802F03CF85C
:10144000C0E76B79074AF1E7EC87002065D5020811
:10145000A5D5020896D502085CD5020877D5020802
:1014600087D502088CD50208002208B51146012351
:10147000054808F030FF28B16FF08500BDE808404E
:10148000FFF772BF08BD00BFF8870020F0B5284DF8
:1014900085B0002306460F4628468DF80330029398
:1014A0008DF80C30A5F5077409F087FA1FBB02AE62
:1014B00000250135D4F844344FF0FF310DF103001D
:1014C000EDB298479DF8033006F8013B042DF0D1AA
:1014D000102201A902A809F069F9B4F836140546EA
:1014E000134807F039F8ADB285420CBF00206FF009
:1014F000810005B0F0BD0544D4F844344FF0FF310D
:101500000DF1030098479DF803302A2BCFD005F842
:10151000013BB4F836242C2B02F10102A4F8362446
:1015200002D006F8013BE7E76FF08200E1E700BF79
:10153000088A002010B5164C032384F83C34A423F9
:10154000A4F8183204F10C000123A4F8383408F090
:1015500006FF18B16FF08500FFF706FFD4F80C0204
:101560000021826808F04FFF30B16FF08500FFF76F
:10157000FBFE022384F83C34064808F0EDFE30B14F
:101580006FF08500FFF7F0FE022384F83C3410BDB5
:10159000EC870020F887002008B50649064807F0C8
:1015A000EEFB4FF4FA6006F0CBFA0020BDE80840ED
:1015B00003F074BDFBD40208B1D502082DE9F04157
:1015C000ADF5087D0021B44EB3488DF8021040F20D
:1015D0001A2209F065FAA6F5077437462546D4F8AD
:1015E00044344FF0FF310DF1020098479DF802306E
:1015F0002A2B09D006F8013BB4F836242C2B02F133
:101600000102A4F83624EAD195F818325B0740F1BC
:10161000DA80A149A14809F0D7F90446002840F032
:10162000D280014640F2012207A809F039FA9A480F
:101630008DF8034002948DF80C40CDE90444ADF8D8
:10164000184009F0BAF904AE0744D5F844344FF015
:10165000FF310DF1030098479DF8033007F8013B77
:10166000B5F836242C2B02F10102A5F8362402D05D
:1016700006F8013BE9E701A90A2204A809F096F857
:10168000019B1978C0B231B16FF0960420460DF578
:10169000087DBDE8F081B5F83834834279D10A225B
:1016A00004A809F0FDF904AED5F844344FF0FF3139
:1016B0000DF1030098479DF8033007F8013BB5F89A
:1016C00036242C2B02F10102A5F8362402D006F8AC
:1016D000013BE9E70A2201A904A809F067F8019B88
:1016E0001B7886B2002BCFD140F201239E424DD809
:1016F000002E49D0A5F83A640DF11C08D5F8443401
:101700004FF0FF310DF1030098479DF8032007F8D3
:10171000012BB5F8363408F8012B013E0133B6B27F
:10172000A5F83634002EE9D1D5F844344FF0FF3116
:101730000DF1030098479DF803302A2BA4D102AF86
:101740000426D5F844344FF0FF310DF10300013E7B
:1017500098479DF8033007F8013B16F0FF06F0D1DB
:10176000102201A902A809F021F8B5F8361487B2B1
:10177000494806F0F1FE019B1B78002B84D187427B
:101780000AD06FF0950481E7A424CDE76FF09E04A2
:101790007CE76FF0980479E7A42C04D1022385F844
:1017A0003C34A02472E73346B5F83A243C4807A9F4
:1017B00008F091FD002840F09A80B5F838340133E4
:1017C000A5F83834EDE795F81832DF0721D532490E
:1017D000344809F0F9F8E0B907908DF820000121AC
:1017E00007A8FFF753FE041EFFF650AF2E4907A8C7
:1017F00009F0EAF818B9012385F83C3446E72B498B
:1018000007A809F0E1F808B90223F5E76FF08404AE
:101810003CE795F818321E071FD51F49244809F0E8
:10182000D3F80646C8B907908DF82000014607A8EE
:10183000FFF72CFE041EFFF629AF304603F0E6FB4F
:101840000446002853D1FFF78FFD4FF4FA6006F0ED
:1018500077F9012003F022FC18E795F818329C076D
:101860002AD50D49134809F0AFF8014620BB07906F
:101870008DF8200007A8FFF709FE041EFFF606AF4B
:1018800008F0BCFC20B1032385F83C34A124FDE61C
:101890006FF08604FAE600BF088A002017D5020818
:1018A000F887002017D602086CD702085AD702081A
:1018B0002DD602081DD6020895F81832D80619D57B
:1018C0003B493C4809F080F8014698B907908DF8EB
:1018D000200007A8FFF7DAFD041EFFF6D7AE08F0D8
:1018E00096FC044618B934480AF0BFFCCEE66FF007
:1018F0008504CBE695F8183299060FD52C492F4868
:1019000009F062F8014648B907908DF8200007A851
:10191000FFF7BCFD041EA8BFA224B7E695F8183255
:101920005A060FD52249264809F04EF8014648B913
:1019300007908DF8200007A8FFF7A8FD041EA8BF98
:10194000A324A3E695F91832002B18DA18491D488C
:1019500009F03AF8064690B907908DF82000014644
:1019600007A8FFF793FD041EFFF690AEA220FFF735
:10197000FBFC40F6B83006F0E3F830466AE795F82D
:101980001932DB0702D46FF083047FE608490E4862
:1019900009F01AF801460028F5D107908DF82000CB
:1019A00007A8FFF773FD041EA8BFA5246EE600BFBD
:1019B000088A00201ED5020840920020AED50208F9
:1019C00011D6020826D6020806D6020813B50E4C18
:1019D000437994F83C249A4213D100238DF80730C0
:1019E000A4F83634D4F844344FF0FF310DF1070039
:1019F00098479DF80730242BF4D1FFF7DFFDFFF760
:101A0000B3FC02B010BD00BFEC8700200D4A92E885
:101A1000030008B50C4B83E8030008F0EFFB044615
:101A200038B90A4807F0ABF922460949094806F0D7
:101A300091FB06F0EBF806F0CFF9034C204606F0D8
:101A4000ADFDFBE7348C0020EC8700202BD502088D
:101A500080841E004092002037B500238DF80730A7
:101A600043685B6C044623B91E4807F088F903B04D
:101A700030BD98470028F7D063685B6B83B1204680
:101A8000984768B163689B6923B101220DF1070192
:101A90002046984700220DF10701E06805F08EFC12
:101AA00063685B6A00258DF80750002BDFD0204665
:101AB00098470028DBD02A460DF10701206905F080
:101AC000CFFC636840B95B69002BD0D001220DF1D7
:101AD000070120469847CAE71B6A002BC7D020465B
:101AE0009847C4E732D6020810B50446084605F008
:101AF000DFFA07C884E8070029B18B6C1BB12246C6
:101B000004492046984763689B6A0BB12046984772
:101B1000002010BD591A020808B513460A460146AE
:101B20000248FFF7D5FA002008BD00BF8C8C0020CA
:101B300008B513460A4601460248FFF715FB002088
:101B400008BD00BF8C8C002008B513460A4601462C
:101B50000248FFF793FB002008BD00BF8C8C0020DB
:101B600008B513460A4601460248FFF74BFA002023
:101B700008BD00BF8C8C002008B513460A460146FC
:101B80000248FFF7C9FA002008BD00BF8C8C002076
:101B900037B5124B124A134D0021044607F04CFC96
:101BA000114B009300232A461946204607F044FCB7
:101BB0000E4B00932A4620460123002107F03CFCEF
:101BC0000B4B01930B4B0093204602230A4A002142
:101BD00007F032FC002003B030BD00BF2ED2020857
:101BE00073D602087BD6020882D6020888D602087D
:101BF00044D202089CD6020892D602087FB5114C46
:101C0000612105462046164606F09EFC01463368D3
:101C10000D4869B1019323680093CDE902100B4B85
:101C20000B4A0021284607F007FC002004B070BDD5
:101C3000CDE9013023680093064A044B284607F09B
:101C4000FBFBF2E78C8C002044D202082ED2020863
:101C500050D6020846D202081FB5084B039305234D
:101C600002930B680193064B064A1B680093002100
:101C7000054B07F0E1FB05B05DF804FB44D2020818
:101C80008C8C002050D602082ED202082DE9F04F8D
:101C90008BB00025032980468A46144609953F4F9C
:101CA0003F4E70D10A222946606808F0F5FDA3680E
:101CB0000793042181466068ADF82050ADF82250AA
:101CC00006F076FB079B0DF122018346184606F0CD
:101CD00048FB014650B10397022302932368019306
:101CE000336800932F4A304B00210BE0BDF82230BF
:101CF0005B450BD0CDE902A72368019333680093BD
:101D0000284A294B404607F097FB38E05FFA89F3F1
:101D1000012B11D02BB1022B12D006230397029373
:101D2000EAE7224B08AA0821186806F083FCC5B22E
:101D300055B103970523D0E708AA09211C4BF3E707
:101D400008AA0F211B4BEFE7BDF82000FFF7F2F8C0
:101D5000014609A808F019FE042109A8366824687C
:101D6000BDF8209006F024FBCDE90149CDE9030739
:101D700000960D4B104A2946404607F05DFB0020B7
:101D80000BB0BDE8F08F0123039702931368019312
:101D900033680093034A044B2946B4E744D202084F
:101DA0008C8C002050D602082ED20208BC010020E4
:101DB000B8010020C00100205DD602082DE9F04FD7
:101DC00003298BB080468A461546434F434E77D150
:101DD000D2F8049099F80000FFF778F8049099F889
:101DE0000100FFF773F8834699F80200FFF76EF8D9
:101DF000044699F80300FFF769F84FF00009AA6854
:101E00000590042168680792ADF8269006F0D0FA94
:101E1000079A06900DF12601104606F0A2FA069BDD
:101E2000014650B10397022302932B680193336854
:101E300000932B4A2B4B00210BE0BDF826209A4241
:101E40000BD0CDE902A72B68019333680093244A95
:101E5000244B404607F0F0FA2EE0049A230103EBEE
:101E60000B2303EB0233059A13449BB203F00F02DA
:101E70001B0A012B0FD02BB1022B0FD00623039787
:101E80000293E0E7184B0821186806F0E5FB40B123
:101E900003970523C8E70921144BF5E70F21144BDD
:101EA000F2E72B6801933368009302970D4B114AB8
:101EB0000021404607F0C0FA00200BB0BDE8F08FCB
:101EC0000123039702931368019333680093044A34
:101ED000044B0021BEE700BF44D202088C8C0020D6
:101EE00050D602082ED20208BC010020B801002002
:101EF000C001002046D2020843685B6C13B504465B
:101F000043B3984730B363685B6B83B1204698470F
:101F100068B163689B6923B101220DF10701204676
:101F2000984700220DF10701104805F047FA636851
:101F30005B6A7BB12046984760B100220DF1070132
:101F40000B4805F08DFA38B10A4B986843681B6A54
:101F500003B1984702B010BD63685B69002BF9D0EC
:101F600001220DF1070120469847F3E73093002046
:101F7000589300208C8C0020F0B5144F85B00F21B1
:101F8000054616463868012206F066FB0446C8205E
:101F900005F0D6FD0F210022386806F05DFB211800
:101FA00049B231B131462846FFF756FE002005B050
:101FB000F0BD074B029333680193064B064A1B683A
:101FC00000932846054B07F037FAEFE7C0010020E1
:101FD00044D202088C8C002046D202082ED202087D
:101FE000F0B5184E85B00821054617463068002226
:101FF00006F032FB0446C82005F0A2FD01220821AC
:102000003068114E06F028FB0444C82064B205F085
:1020100097FD304606F05EFA34B139462846FFF7A0
:102020001BFE002005B0F0BD084B02933B680193F6
:1020300033680093064A074B2146284607F0FCF90F
:10204000EFE700BFBC0100208C8C002044D20208C6
:1020500046D202082ED20208F7B52A482A4C2B4D48
:102060002B4E05F025F80821206006F0ECFA2548F3
:1020700005F01EF80921286006F0E5FA254805F06C
:1020800017F80F21306006F0DEFA00220F213068C9
:10209000214E06F0E1FA0022092128681F4D06F0C2
:1020A000DBFA00220821206806F0D6FAC82005F0E5
:1020B00047FD01220821206806F0CEFA184B009354
:1020C000184A194B19491A4806F07DF9134806F0C9
:1020D00001FA4FF0FF31304605F0CAFD0022082119
:1020E000206806F0B9FA0746C82005F029FD01224C
:1020F0000821206806F0B0FAC742EAD1284606F067
:10210000E9F9E6E7A3D60208BC010020B8010020E7
:10211000C0010020A9D602089C9200208C8C0020CF
:10212000F91E020830930020589300209CD7020823
:10213000948C002008B513460A4601460248FEF773
:10214000C7FF002008BD00BFA48D002008B51346BE
:102150000A4601460248FFF707F8002008BD00BF05
:10216000A48D002008B513460A4601460248FFF731
:1021700085F8002008BD00BFA48D002008B51346D7
:102180000A4601460248FEF73DFF002008BD00BF99
:10219000A48D002008B513460A4601460248FEF702
:1021A000BBFF002008BD00BFA48D002043685B6C0E
:1021B00013B5044643B3984730B363685B6B83B190
:1021C0002046984768B163689B6923B101220DF1ED
:1021D00007012046984700220DF10701104805F03D
:1021E000EDF863685B6A7BB12046984760B10022D6
:1021F0000DF107010B4805F033F938B10A4B986827
:1022000043681B6A03B1984702B010BD63685B69FD
:10221000002BF9D001220DF1070120469847F3E782
:1022200080930020A8930020A48D002037B5094C8E
:10223000094B009313460A4601462046FEF70AFF63
:102240000546C82005F07CFC204606F043F9E8B2BC
:1022500003B030BDA48D0020A3D7020801292DE9C9
:10226000FF4780468A4617461E4E1F4D2FD1DFF886
:10227000889000221146D9F8000006F0F6F90446CD
:10228000642005F05DFC00215246D9F8000006F0FC
:10229000ECF9211849B23B6861B10522CDE9013260
:1022A0002B680093114A124B03960021404607F019
:1022B000C3F808E0CDE901362B6800930D4A0C4BBA
:1022C000404607F0B9F8002004B0BDE8F0870123CC
:1022D00003960293136801932B680093034A044BFF
:1022E0000021E4E744D20208A48D002050D6020861
:1022F0002ED2020846D20208C401002001292DE98D
:10230000FF4780468A461746214D224E35D1DFF8D9
:1023100094900022D9F8000006F0A7F90446C820DE
:1023200005F00EFC52465146D9F8000006F09DF922
:102330000444C82005F004FC64B2284606F0CAF83C
:102340003B6864B10522CDE901322B680093124A43
:10235000124B03960021404607F06EF809E0CDE9E4
:1023600001362B6800930E4A0C4B2146404607F07D
:1023700063F8002004B0BDE8F087012303960293C0
:10238000136801932B680093034A044B0021E3E791
:10239000A48D002044D2020850D602082ED2020892
:1023A00046D20208C8010020F7B52748274C04F0A0
:1023B0007FFE436820601D6801231A460021A8475C
:1023C000002201212068224D06F04FF9C82005F0B7
:1023D000B7FB01221146206806F047F91A4804F0BD
:1023E00067FE4368286000221E6811460123B0473B
:1023F000012200212868174E174D06F036F9174BB9
:102400000093174A174B1849184805F0DCFF12488B
:1024100006F060F84FF0FF31304605F029FC00224D
:102420000121206806F021F90746C82005F088FB45
:1024300001221146206806F018F9C742EAD1284661
:1024400006F048F8E6E700BFB2D70208C80100204E
:10245000C40100206C920020A48D0020AD21020850
:1024600080930020A893002085D80208AC8D00201E
:102470002DE9F04F8BB00027032980468A46144689
:1024800009974A4E4A4D40F08780102239466068CD
:1024900008F002FA042183466068D4F80890ADF889
:1024A0002070ADF8227005F083FF0DF12201079036
:1024B000484605F056FF079B814660B1022303960C
:1024C000029323683B4ACDE900533B4B39464046D3
:1024D00006F0B2FF3FE0BDF822209A4208D0CDE9D5
:1024E00002A62368334ACDE900534946324BEEE752
:1024F0005FFA8BFB584600F04DFB0146002842D0A6
:10250000584600F047FB08A94278584600F054FBB3
:102510008246002833D1584600F03CFB4378012B1B
:102520001DD1BDF82000FEF705FD014609A808F001
:102530002CFA042109A82468BDF8207005F038FFA2
:10254000CDE90147CDE9030600951B4B1B4A00214D
:10255000404606F071FF00200BB0BDE8F08F5846F2
:1025600000F018FB4378022BDBD00723039602937D
:102570002368104ACDE9005351460F4BA7E70523C6
:1025800003960293ADE70623039602932368094A54
:10259000CDE90053084B9AE7012303960293136891
:1025A000044ACDE900533946034B91E744D202086F
:1025B00055D8020850D602082ED202085DD602086D
:1025C0002DE9F04F032989B080468A461546434FCE
:1025D000434E79D1D2F8049099F80000FEF776FCCA
:1025E000834699F80100FEF771FC040299F8020095
:1025F000FEF76CFC04EB0B3424B204EB001499F8E6
:102600000300FEF763FCA4B20444A4B204F00F0379
:102610008DF81D300421AB68686805934FF0000900
:10262000ADF81E9005F0C4FE059B0DF11E0183461A
:10263000184605F096FE0146C0B1022302932B68AE
:10264000284A0397CDE90063274B4946404606F0E8
:10265000F3FE052302932B68224A0397CDE900631A
:10266000214B0021404606F0E7FE29E0BDF81E3070
:102670005B4507D02B681B4ACDE90063CDE902A773
:10268000194BE3E7240A204600F084FA0028E0D042
:10269000204600F07FFA0379002BDAD10DF11D01FD
:1026A0000122204600F0B6FA01460028D1D12B685D
:1026B0000297CDE900630D4A0B4B404606F0BCFE85
:1026C000002009B0BDE8F08F01230397029313683F
:1026D000044ACDE900630021034BC4E744D2020859
:1026E00055D8020850D602082ED2020846D2020857
:1026F00070B5CAB004AC304D06464FF48C72002160
:10270000204608F0CDF929462C4B0022204603F044
:10271000BDFF204608F051F92946294B01222044EB
:1027200003F0B4FF204608F048F92946254B022261
:10273000204403F0ABFF204608F03FF92946224B26
:102740000322204403F0A2FF204608F036F9294670
:102750001E4B0422204403F099FF204608F02DF977
:1027600029461B4B0522204403F090FF204608F029
:1027700024F92946174B0622204403F087FF204600
:1027800008F01BF9144B07222946204403F07EFF72
:10279000204608F012F90146204605F009FE0F4BCD
:1027A0000094CDE901030E4A0E4B0021304606F09D
:1027B00043FE4AB070BD00BF91D802088CD8020811
:1027C000E7D802089AD80208AAD80208B8D802089E
:1027D000C1D80208C8D80208CDD8020844D20208DD
:1027E000D4D802082ED2020801291FB505D1FFF75F
:1027F0007FFF002005B05DF804FB074B0393012326
:10280000029313680193054B0093054A054B002181
:1028100006F012FEEDE700BF44D2020855D80208C8
:1028200050D602082ED2020807B500230193074BA9
:1028300001AA18680A2105F035FF012201A9052027
:1028400000F0E8F903B05DF804FB00BFCC01002004
:1028500007B500230193074B01AA1868082105F06A
:1028600021FF012201A9042000F0D4F903B05DF892
:1028700004FB00BFD001002007B500230193074BE4
:1028800001AA18680B2105F00DFF012201A9032000
:1028900000F0C0F903B05DF804FB00BFE0010020C8
:1028A00007B500230193074B01AA1868082105F01A
:1028B000F9FE012201A9022000F0ACF903B05DF895
:1028C00004FB00BFD401002007B500230193074B90
:1028D00001AA1868092105F0E5FE012201A91046A8
:1028E00000F098F903B05DF804FB00BFDC010020A4
:1028F000054B10B5186843680D225C680B78002101
:10290000A047002010BD00BFE40100208FB589481A
:10291000894C00F0BBF9894804F0CAFB4FF493726C
:102920000C21206005F0C7FE60B98549854B4B60DE
:1029300020684FF480538B6005F0A0FE0C212068C6
:1029400005F0A7FE7D48804C04F0B2FB4FF4B9724D
:102950000921206005F0AFFE60B97C497C4B4B60DB
:1029600020684FF400738B6005F088FE0921206811
:1029700005F08FFE002211461046FFF7A5FF6F48B5
:10298000744C04F095FB4FF4B9720821206005F0F7
:1029900092FE60B97049714B4B6020684FF48073B0
:1029A0008B6005F06BFE0821206805F072FE0022A6
:1029B00011461046FFF774FF69486A4C04F078FB33
:1029C0004FF4B9720B21206005F075FE60B96649BD
:1029D000664B4B6020684FF400638B6005F04EFE41
:1029E0000B21206805F055FE002211461046FFF726
:1029F00043FF5F485F4C04F05BFB0022082120602E
:102A000005F059FE60B95C495C4B4B6020684FF49F
:102A100080738B6005F032FE0821206805F039FED6
:102A2000002211461046FFF713FF5148544D04F0A1
:102A30003FFB4FF4B9720A21286005F03CFE60B9F3
:102A40005049514B4B6028684FF480638B6005F010
:102A500015FE0A21286805F01CFE002211461046CA
:102A6000FFF7E2FE354804F023FB484B0025012226
:102A70000D21186005F01FFE00F0C2F9012203A924
:102A800028468DF80C5000F0C5F84FF47A7005F028
:102A900057F80122284603A98DF80C2000F0BAF857
:102AA0003B4D4FF47A764FF47A7005F049F80027E1
:102AB0002846CDE9017700F0B1FA4FF47A71284643
:102AC00005F036FE284605F083FE01900A2005F049
:102AD00037F84FF47A71284605F02AFE284605F0AB
:102AE00077FE0290284605F005FE019A40F24B63FE
:102AF00001A9534306200222B3FBF6F3019300F031
:102B000089F8029A41F2456302A953430720022241
:102B1000B3FBF6F3029300F07DF803AA08212068C6
:102B2000039705F0BFFD012203A9042000F072F80D
:102B3000B9E700BFBC8E0020D8010020A9D602084A
:102B40000C0200208D860208DC0100201802002003
:102B5000C9280208D401002000020020A128020890
:102B6000A3D60208E00100202402002079280208F0
:102B7000B2D70208D0010020F40100205128020839
:102B8000CC010020E801002029280208E4010020EF
:102B9000B4020020064B1B78834281BF054B1B68A3
:102BA00000EB800003EB800098BF0020704700BF5F
:102BB0005A1100203002002070B5134B1B7883425D
:102BC0000E4618D9114B1D6800EB800005EB8005FF
:102BD0006B78934212D164210D4805F049F8044600
:102BE00078B96A78A968304607F030FF084805F0E0
:102BF00013F8204670BD6FF04D04FAE76FF015042E
:102C0000F7E76FF00F04F4E75A11002030020020BC
:102C1000B49200202DE9F041194B1B7883420646FF
:102C20000F4623D9174B1B6800EB800403EB840489
:102C300094F8018090451CD16421134805F018F8E0
:102C40000546C8B96278A068394607F0FFFEE37808
:102C50000D480133E37004F0DFFF23691BB14246E6
:102C60003946304698472846BDE8F0816FF04D055B
:102C7000F9E76FF01505F6E76FF00F05F3E700BF12
:102C80005A11002030020020B49200200D49002388
:102C900070B50B7010B96FF0150070BD0A4A1D4673
:102CA00010601426DCB206FB04020133926832B9CC
:102CB000002DF0D00C70002CEDD01046EDE7012572
:102CC000F0E700BF5A1100203002002013B50023A6
:102CD0000A4C019304230DEB0302072104F1540075
:102CE00007F051FA002804DD019B2360022002B0A6
:102CF00010BD034806F043F8F8E700BF3402002097
:102D0000CFD9020830B5124C124885B04FF4404379
:102D1000636504F0CDF901AA616D08F0CEFB0546AC
:102D200028B10D4806F02BF8284605B030BD029BAF
:102D3000A4F860300749032304F15400A4F862307A
:102D400002F026F805460028EED00448EAE700BF66
:102D50003402002099D90208A4D90208BCD902087B
:102D60002DE9F341224ED6F8008004461546B8F10D
:102D7000000F1AD1D2E9010105F0A6FC074630B1D7
:102D80001C4A03464146204606F056FB0DE06868A3
:102D90000A22694607F00AFD009B01901D7845B1A3
:102DA000154A3946204606F047FB002002B0BDE830
:102DB000F08104230DEB0302072106F1540007F014
:102DC000B8F8031E02DA0B4A2946DCE7042BFAD1D5
:102DD000019B0A4A33602946204606F02DFB4FF43A
:102DE0007A7004F0ADFE012002F058F9DDE700BF73
:102DF000340200206FD9020877D9020894D902085A
:102E00007FB510220021684607F04AFE154C164A8D
:102E10004FF44033C4E9002301250023134AA36083
:102E2000022620462561A5612362E362A262E36077
:102E3000E6612363636100F04DF880B90C23CDE9AE
:102E40000035694607232046029300F047F930B960
:102E50000D2369462046CDE9003600F03FF904B065
:102E600070BD00BFB4020020002001400100000F2F
:102E700010B5044688B01422002103A807F010FE04
:102E80002268124B9A421ED103F58C330021019126
:102E90005A6C0F4842F480725A645A6C02F4807281
:102EA0000192019A02911A6B42F004021A631B6BA1
:102EB00003F004030293029B0C22032303A9CDE930
:102EC000032300F09DF908B010BD00BF00200140B1
:102ED0000008024010B50446002800F09980036CF9
:102EE00023B9436480F83C30FFF7C2FF236CDB0654
:102EF00000F18C80236C23F4885323F0020343F009
:102F000002032364434B5A6822F440325A605A68E1
:102F100061680A435A60236821695A6822F4807202
:102F20005A605A6842EA01225A605A68A16822F03F
:102F300040725A605A680A435A609A68E16822F4FB
:102F400000629A609A680A439A603349A26A8A4288
:102F500050D0996821F07061996099680A439A602D
:102F60009A68E16A22F040529A609A680A439A602D
:102F70009A68A16922F002029A609A6842EA4102C4
:102F80009A60226A002A3DD05A68616A42F400625F
:102F90005A605A6822F460425A605A68013942EA1B
:102FA00041325A60DA6AE16922F47002DA62DA6A5E
:102FB000013942EA0152DA629A68216B22F4007206
:102FC0009A609A6842EA41229A609A68616922F49A
:102FD00080629A609A68002042EA81229A60606466
:102FE000236C23F0030343F001032364002384F8DC
:102FF0003C3010BD9A6822F070629A609A6822F0A4
:103000004052B4E75A6822F40062CAE70120EDE7B3
:103010000120EEE7002301400100000F82B00023F1
:10302000019390F83C30012B4ED0012380F83C30C6
:1030300003689A68D10705D59A68D20714D400208E
:1030400002B070479A68214942F001029A60204A12
:103050001268B2FBF1F202EB42020192019A002ADD
:10306000EAD0019A013AF8E7026C22F4E06222F019
:10307000010242F4807202645A68510541BF026C39
:1030800022F4405242F480520264026C12F48052E4
:103090001CBF426C22F006024264002280F83C20F1
:1030A0006FF022021A600B4A5268D20608D1986863
:1030B00010F04050C3D19A6842F080429A60BFE756
:1030C000054A9342BBD1F2E70220B9E740420F0024
:1030D000748F00200023014000200140F7B5002339
:1030E000019390F83C30012B7AD00D688E68012353
:1030F000092D80F83C30ACB2036829D904EB4402B6
:10310000DF681E3A4FF0070C0CFA02FC27EA0C07A6
:10311000DF60DF6806FA02F23A43DA60496806299E
:1031200001EB810224D8596B053A1F26964021EA0B
:1031300006015963596B04FA02F20A435A632C4A96
:10314000934231D0002380F83C30184603B0F0BDE4
:103150001F6905EB45024FF0070C0CFA02FC27EA49
:103160000C071F611F6906FA02F23A431A61D5E79C
:103170000C294FF01F010BD81E6B233A914026EA11
:1031800001011963196B04FA02F20A431A63D6E7C4
:10319000DE6A413A914026EA0101D962D96A04FA0D
:1031A00002F20A43DA62CAE7122D1BD1114A5368B0
:1031B00043F4800353600F4A5368122D43F4000315
:1031C0005360BFD10C4B0D4A1B68B3FBF2F20A23CC
:1031D00053430193019B002BB4D0019B013BF8E7C3
:1031E0000220B3E7A5F11103012BABD8E3E700BF41
:1031F0000020014000230140748F002040420F0056
:103200002DE9F04F85B00B68DFF8A081654ADFF843
:10321000A091019300234FF0010C019C0CFA03FCD8
:1032200004EA0C06B44540F0AA804C6824F010076C
:10323000022F16D14FEAD30A00EB8A0A03F0070BDC
:10324000DAF820504FEA8B0B4FF00F0E0EFA0BFE00
:1032500025EA0E0E0D6905FA0BF545EA0E05CAF8CA
:1032600020504FEA430A0325D0F800B005FA0AF5CA
:10327000ED4304F0030E05EA0B0B0EFA0AFE013FC4
:103280004EEA0B0E012FC0F800E011D8876807EA5C
:10329000050BCF6807FA0AFE4EEA0B0787604768FE
:1032A00027EA0C0CC4F300179F4047EA0C0747605D
:1032B000C7683D408F6807FA0AF73D43C560E500DF
:1032C0005DD54FF0000BCDF80CB0D8F84470364DFA
:1032D00047F48047C8F84470D8F8447007F4804732
:1032E0000397039F23F0030707F1804707F59C37F7
:1032F00003F0030ED7F808A04FEA8E0E4FF00F0C24
:103300000CFA0EFCA8422AEA0C0C3FD005F58065A9
:10331000A8423DD005F58065A8423BD005F5806503
:10332000A84239D005F58065A84237D0484537D046
:1033300005F50065A8420CBF0625072505FA0EF520
:1033400045EA0C05BD601568F74314F4803F0CBFD7
:103350003D4035431560556814F4003F0CBF3D40B7
:1033600035435560956814F4801F0CBF3D403543CC
:103370009560D568A40254BF3D403543D560013304
:10338000102B7FF448AF05B0BDE8F08F5D46D5E760
:103390000125D3E70225D1E70325CFE70425CDE7B3
:1033A0000525CBE7003C0140000002400038024008
:1033B0000014024010B5094C0A44914200D110BDDE
:1033C00011F8013B43401809205C80EA0310C3B2A6
:1033D0001809205C80EA0310C0B2EEE717DA020891
:1033E0000B6801330B60014B1B681847708F00207E
:1033F0002DE9F04F85B09B460E9CDFF890A0012C84
:10340000B8BF0124012B0CBF302320231546804672
:1034100089460194029301260A2700220AF1010439
:103420000AB9AA451FD2B5FBF4F049463030C0476F
:1034300001360122013F012FB5FBF4F14FF00A03E1
:1034400004FB1155BAFBF3FAE8D1494605F1300007
:10345000C047BBF1030F03D1019B9C1B002C0FDC69
:1034600005B0BDE8F08F019BBB42E3DBBBF1020F6F
:10347000E0D84946029803920136C047039AD9E73B
:1034800049462020C047013CE8E700BFFFC99A3BFE
:10349000014B1860704700BF708F002007B50023F4
:1034A000019302460B46034801A905F017FB03B040
:1034B0005DF804FBE13302080CB430B585B008AB0D
:1034C000CDE9010153F8042B00930446002501A91E
:1034D0000648039505F002FBDDE902309842B8BFCB
:1034E000255405B0BDE8304002B07047B78A0208E5
:1034F0004FF01003EFF3118183F31188BFF36F8F47
:10350000064B4FF0FF329A62DA6281F31188BFF303
:103510006F8F034B034A1A600020704700ED00E0F4
:10352000748F00200024F400024A136823F0020381
:103530001360704710E000E0024A136843F0020392
:103540001360704710E000E0064A1369012923F078
:103550000403136101D130BF704740BF20BF20BFBB
:10356000704700BF00ED00E0054B1A681B6802F0D1
:10357000007203F0006313430CBF0120002070476A
:1035800000380240264B1A6802F44042B2F5404F20
:103590001A4632D1234B984231D8234B984201D955
:1035A000022304E0214B984294BF002301231268B8
:1035B00002F44042B2F5004F05D11B4A904220D997
:1035C000002B08BF0223164A126802F44042B2F5EB
:1035D000804F05D1144A90421AD9002B08BF02230C
:1035E00013490A6822F00F021A430A60086800F0C3
:1035F0000F00C31A5842584170470023D7E70323EE
:10360000D5E70A4A9042DED9002B08BF0123DAE74A
:10361000064A9042E4D9002B08BF0123E0E700BF2F
:1036200000700040804A5D050090D00380C3C9014E
:10363000003C02400B68224AC3F3031370B5214DCE
:10364000D45C2B6820FA04F4A3420E4627D31E4B09
:103650001A6842F080721A601A689201FCD59A6862
:10366000316822F0F0020A439A609A6822F003025D
:1036700042F002029A60144B9A6802F00C02082A87
:10368000FAD19A68716822F4E0520A439A609A6803
:10369000B16822F460420A439A60012005E02046A6
:1036A0001CB1FFF76FFF0128D1D02B68A34203D9CB
:1036B000204624B1FFF766FF012808BF2C6070BDCB
:1036C0003BDA0208748F0020003802402DE9F041F7
:1036D00004460D4690461946FFF746FF012838D1AB
:1036E000D8F80060D8F80470D8F8083006F03F0029
:1036F000B4FBF0F4C7F308004443180C0130400059
:10370000B4FBF0F0144C226892030FD42268012D10
:103710000CBF42F4802222F480222260226842F40C
:10372000803222600C4C22689203FCD50A4C0B4A72
:1037300065682A4042EA8712324342F4800262609E
:10374000626822F440321A436260BDE8F041FFF73C
:1037500071BF0020BDE8F081003802400080BFFF4B
:1037600030B50C4D0C4987B000240E23CDE902433F
:103770004FF44072094BCDE90444CDE9004428469A
:1037800004F006FB2846064908F0C9FC204607B0AD
:1037900030BD00BF2C03002060330020ED3A02084A
:1037A0004BDA020838B500F0FDF91348134C05F068
:1037B000A5FB134913480423282208F0CEFA124B24
:1037C000124A1A604FF47A7000F0E2FB1048114B75
:1037D0001B1ADB0800210430994200D138BD10F8D3
:1037E0003120256802F0070225F007052A4344F836
:1037F000042B0131F0E700BF08030020689100208E
:103800008854002010030020788F0020198F0208B0
:1038100080C80208B0C80208F8B50F4BBFF35B8F31
:10382000002553E8007F43E80052002AF9D1BFF396
:103830005B8F0A4C0A4E361B3611B54200DBF8BDD1
:1038400063685B792BB12368DB6813B13946204686
:10385000984701351034F0E700030020B0C8020893
:10386000C0C802082DE9F8432C4B1B78054603B964
:1038700060B34FF01003EFF3118483F31188BFF3AB
:103880006F8F274805F040FB064684F31188BFF38D
:103890006F8F78B1BFF35B8F224B53E8002F013A53
:1038A00043E800210029F8D1BFF35B8F8DB130468A
:1038B00005F0B3FB25B91C4B1B680BB1FFF7ACFF40
:1038C000174805F01FFB051C18BF01252846BDE859
:1038D000F883164C164FDFF85C903F1B3F11A8464B
:1038E000B845E4DA63685A799AB170891B79B17A7C
:1038F000800903EB430259F82030D34001F007015F
:1039000003F00703994204D8236831461B68204618
:10391000984708F101081034E2E700BF5B1100206E
:1039200008030020FC02002000030020B0C80208A9
:10393000C0C8020868910020044A054B9B1AB1EBED
:10394000D30F34BF52F831000020704780C80208FE
:10395000B0C802082DE9F047894616469846B8B91E
:10396000214B224FFF1A3F11044605469A46BC429E
:1039700002DB2846BDE8F0870AEB041043463246D6
:103980004946FFF7E7FF854238BF05460134EEE7B9
:10399000174B184903EBC2031D7943681A790723B3
:1039A00002EB420203FA02F0454551F8263028BFE7
:1039B000454623EA000305F0070000FA02F213432C
:1039C0000020032223FA02F404F00704A04202F1CB
:1039D000030238BF20461E2AF4D123F00703034315
:1039E00041F82630C5E700BFB0C80208C0C80208C9
:1039F00080C8020868910020114BC31A2DE9F041DC
:103A00001B11174642680F4C013313710E4BE41A19
:103A100005460E46E4084FF00008A04507D16A6845
:103A2000012316605371094A1370BDE8F0814246C4
:103A30003B4600212846FFF78DFF08F10108ECE71F
:103A4000B0C80208B0C8020880C802085B11002094
:103A500070B5114BBFF35B8F53E8005F6A1C43E8FE
:103A600000210029F8D1BFF35B8F2DB90B4C0C4E10
:103A7000361B3611B54200DB70BD237B43B1236892
:103A80005B6903B19847002211462046FFF7B4FF57
:103A900001351034EEE700BF04030020B0C802086F
:103AA000C0C80208F8B50E4F3D7875B90D4C0E4EE2
:103AB000FFF7CEFF361B3611B54207DB0020FFF7BC
:103AC000D1FE0028FAD101233B70F8BD63685B7911
:103AD0001BB1236820461B69984701351034EBE77A
:103AE0005C110020B0C80208C0C8020808B5FFF782
:103AF000AFFF04F08BF8094A106028B1084B1B682F
:103B0000092B01DD04F05CF80020FFF7ABFE002874
:103B1000FAD14FF47A7004F013F8F5E79803002017
:103B2000FC020020436870B500245C71074D084B0F
:103B3000ED1A0646ED08AC4200D170BD00232246C6
:103B400019463046FFF706FF0134F4E7B0C8020813
:103B500080C80208054B984205D3783398428CBF41
:103B60000020012070470020704700BF8C540020C7
:103B700007B504380190BFF35B8F50E8003F5A1E31
:103B800040E800210029F8D1BFF35B8F012B03D15E
:103B900001A9034803F0A4FB03B05DF804FB00BFD8
:103BA0001003002020231A460149024808F0D5B826
:103BB000285500209C0300207FB5047A457A0190A7
:103BC00014F001044FEA15150ED0019B1A7A9207E2
:103BD00004D55B69104C0393039BB3B901A90E484C
:103BE00003F07EFB04B070BD002DEED0A54201981D
:103BF000EBD9214605F0F4F90646FFF7ABFF10B10B
:103C00003046FFF7B5FF0134F0E71D6803A92046F1
:103C100003F066FB0395DFE79C0300200EB403B5B9
:103C200003AB014653F8042B0448019304F056FFFC
:103C3000002002B05DF804EB03B070474193020826
:103C40002DE9F04F85B011F00204064690469DF82C
:103C5000387001F0010901F0080507D011F0440F98
:103C600037D11A463249FFF7D9FF0446B9F1000FA0
:103C70000AD0304B304953F82720304B3046002AC9
:103C800008BF1A46FFF7CAFF3DB12D4B2D4953F827
:103C900027203046FFF7C2FF0546B8F1000F44D099
:103CA000012303FA07F7284B17F0100F274F18BF0F
:103CB0001F46BDF840109DF83C00FFF73DFE394619
:103CC00002463046FFF7AAFF2844204405B0BDE86D
:103CD000F08F1F4A116831B31E4A4FF4616E1468A9
:103CE000B3FBF4F34FF47A7CB3FBF1F4B4FBFEF2D4
:103CF0000EFB124E01FB14340CFB04F44FF03C0A93
:103D0000B4FBF1FB01FB1B44BEFBFAF30CFB04F418
:103D1000B4FBF1F1CDE901B10AFB13E100910E49C9
:103D2000FFF77CFFA1E708469FE7084FC1E700BF08
:103D30008ADA020850CC020899D602087CDA020816
:103D400064CC0208AFDA020886DA020881DA0208D7
:103D5000B8030020BC03002093DA02082DE9F843E1
:103D60009846089B1746DA0604460E4605D49B067D
:103D70004CBF21492149FFF751FFDFF8889000250A
:103D8000454528DBDFF88080DFF880900025AF42D2
:103D900027D9725D49462046FFF740FF0135082DBF
:103DA000F5D11749DFF85C80DFF864902046FFF713
:103DB00035FF0025AF4219D9725DA2F120035F2BB8
:103DC00028BF2E2249462046FFF728FF0135082D3F
:103DD000F0D1BDE8F88349462046FFF71FFF0135C3
:103DE000CEE741462046FFF719FFD7E74146204678
:103DF000FFF714FFEAE700BF43DB02088DD4020897
:103E00005DDA02085BDA020859DA020853DA0208BE
:103E100064DB020838B50C46E107054603D5084ABD
:103E20000849FFF7FBFEE20608D4A30628464CBF6C
:103E300005490649BDE83840FFF7F0BE38BD00BF70
:103E40007CDA020899D6020843DB02088DD4020806
:103E50002DE9F0478B7A13F00704174688B0054622
:103E60000E460A7A1CD04989C3F3C2038909D2439A
:103E70000291CDE9004302F00102F3683946FFF7F1
:103E8000DFFE8146337ADA070CD42946304605F046
:103E9000EDF84CB3224639462846FFF7BBFF23E036
:103EA000A146EFE734BB2746EB68069306AA3B46DC
:103EB000A968304605F0C6F8069A6B681A603AB1F0
:103EC000AB68134413F8014CA4F10A035C425C4153
:103ED000284605F028FA069B1F44002BE4D11CB1AC
:103EE00014492846FFF79AFE284605F01CFA08B048
:103EF000BDE8F087304605F0A3F80F490246284692
:103F0000FFF78CFE4FF000084FF0080A05AA434661
:103F100006A93046CDF814A005F094F8059A002AB9
:103F2000B8D04B46009706A92846FFF717FF059B18
:103F30009844EBE783D8020899D6020873B5D0E914
:103F400000435D680F4A42F20F738B4228BF0B4655
:103F50006846052102F082FB2B46064604222046D5
:103F6000094905F076F82B4632466946204605F0A9
:103F700070F82B4617220549204605F06AF802B072
:103F800070BD00BF59DB020877DA02085FDA020869
:103F9000084A10B50123084C13600021A04204D840
:103FA00001B11360054B186010BD40085B00012192
:103FB000F4E700BFBC03002040420F00B80300201C
:103FC0002DE9F04796B004460023029305F029FC42
:103FD000204605F0E8FB18B94E49606905F0F3F991
:103FE000A06814220021083006F05AFD204605F092
:103FF00081FBA2680C2334320DEB030009A905F004
:10400000B4FA039A034632B300BB0DF12408054607
:10401000074682460DF110090026039B9F4238D2C5
:1040200002ABCDF8009032463946504600F080FC95
:10403000731C01D0029B8BB95FBB374B0093374A8F
:10404000099B0221204605F058FC04E0344A022175
:10405000204605F052FC6FF0070535E01968D8F8E6
:10406000000006F0B1FC01360028D6D1DDF808C00A
:10407000DCF80C303BB166460FCEA56808350FC59D
:1040800033682B603D460137DCF808A008F10408CE
:10409000C2E7A068039E4369761B2BB9214A02211F
:1040A000204605F02AFCD6E7037E8BB19E42427E75
:1040B00002D313449E420BD983681B4A0221204637
:1040C00005F01BFC6FF01505284616B0BDE8F0871B
:1040D00000F5D96003F092FAA368B3F8342642F0F1
:1040E0008002A3F8342609AA02EB850231465B69F7
:1040F000204698470546A068B0F834366FF3C713DA
:10410000A0F834364FF0FF3100F5D96003F006FA1D
:10411000DAE700BF43DB0208EFDA0208E9DA020857
:10412000D5DA020803DB020821DB02082DE9F04F93
:104130008368BFF35B8FADB0044603F2346353E88A
:10414000002F42F0080243E800210029F7D1BFF315
:104150005B8FA3681B79022B40F0D58200230C9360
:104160006068036801221D690DF12F010CABA8479F
:104170000C9B002B00F0C7829DF82F100B06EFD48C
:10418000A0684379022B00F24A82DFE813F00300B3
:1041900042024A020D291BD00A2919D0B0F8343640
:1041A0006FF30F23A0F83436092952D037D80029ED
:1041B000D6D0082900F01B82A1F120035E2B00F26B
:1041C0002582B0F8343643F04003A0F8343631E1AC
:1041D000D0F8343613F47F4F05D0D0F83436C3F31B
:1041E00007239942E0D1B0F8343661F30F23A0F8E9
:1041F0003436C38D7BB99449606905F0E4F8A3684F
:1042000002221A71002283F834201A86DA852046A9
:1042100000F070FCA4E72046FFF7D2FEEFE71B2971
:1042200014D07F29C8D1D0F834365D0798D5B0F8BE
:10423000343643F04003A0F83436D0F834369906CB
:1042400000F1E081204605F09BFB89E701234371E3
:1042500086E7D0F83436C3F380030393002B3FF492
:104260007FAFB0F83436C28D43F04003A0F8343647
:1042700040F2FF139A423FF473AF028E00F1340113
:1042800000F50D7006F0E2FBA268138E13440021C6
:1042900083F8341202F50D720C231FA90DA805F046
:1042A00064F9A3681A8E134493F83330202B6FD02F
:1042B000093B042B8CBF002301230D9E002E00F030
:1042C0003582002B66D1012E00F02F8206F1FF38D7
:1042D00000261FAD37460DF14009002355F804BBF9
:1042E0001A931A461AABCDF800903146384602F1BF
:1042F000010A00F01DFB1A9B002B3FF431AF196837
:10430000584606F061FB1A9B002845D19A46002BBF
:104310003FF426AF0136B0459F68DED12CAB03EBEE
:1043200086034FF0000B53F8348C404605F045F8F7
:10433000D9460590CDF810B05D465F46BAF1000F42
:104340002ED0DAF808001AF1000318BF01230293F7
:104350001AAB00932A4615AB029900F0E9FA159BB7
:1043600003B3059A1868414606F03AFB70B9159BED
:10437000186806F022FB049B834238BF03469BB2B9
:1043800004930BF1010B0FB9039FA9460135D5E743
:10439000012392E7B0469BE75246002BA2D1DFE60D
:1043A0005046D0E7BBF1010F50D12CAB03EB860395
:1043B00053F8340C05F001F80546BAF1000F01D0AE
:1043C000DAF808A0A3680299083300934A461AABAA
:1043D000504600F0ADFA1A9B186804F0EEFF8542D3
:1043E00007D01A9B1968421B92B22944204605F057
:1043F000C5FAA3681A8E1A4492F83420202A1DD0D8
:10440000093A042A1AD9D3F83426D70711D5B3F8B4
:1044100034266FF30002A3F834262021204600F052
:1044200037FBA268B2F8343643F00103A2F8343601
:1044300096E62021204600F02BFB91E60121204644
:1044400005F0C5F98CE600BF43DB020805937FF653
:1044500087AE2CAB03EB860252F8343C039318462C
:1044600004F0ABFF059BA2680890CDE9059B9385FE
:10447000BAF1000F71D0DAF80800A368059A029922
:10448000083300931AAB00F053FA059B01330593F0
:10449000039B002B63D11A9B1F68002F6AD1A3686E
:1044A0009F85069B013B0693E2D1A149606904F018
:1044B0008AFF204600F01EFB2CAB03EB860309F1BC
:1044C000010753F8340C04F078FF0646BAF1000FE8
:1044D00000F08780DAF80800029915AB00934A468D
:1044E0000EAB00F025FA0E9BD3F800804FF6FF7557
:1044F000BAF1000F79D0DAF8080002991AAB0093EC
:104500003A460FAB00F014FA0F9B07F10109CBB14B
:104510000E9A1868116800228F5C835CBB4205D13B
:1045200023B101324FF6FF739A42F5D10EB1B24278
:1045300059DB95420BF1FF3BA8BF1546BBF1010FBC
:10454000ADB250D1002D3FF40BAEAA1B92B208EBD6
:104550000601204605F012FA02E650468DE71A9B46
:104560001868002897D0089A039906F039FA0028AD
:1045700091D07DE76F4804F020FF049B1844A368A6
:104580001FFA80F86B48DD8C04F017FF099038465D
:1045900004F013FFA268A8EB000083B20793938D89
:1045A000591C9185099AAD1A95FBF8F81FFA88F8FD
:1045B000B3FBF8F508FB15339BB25BB900975D4B75
:1045C0005D4A0721204605F098F90799204600F03A
:1045D000F3F966E73B46594A0721204605F08DF975
:1045E000F3E7504678E74F4682E7504685E7D0F834
:1045F00034365E077FF5B4ADB0F8343643F040038F
:10460000A0F83436204605F0D6F9A9E5D0F83436BE
:10461000A6E55B2901D1022319E6D0F83436002340
:1046200015E600234371D0F834365A077FF598AD6C
:1046300031391B293FF694AD01A353F821F000BF97
:10464000CD460208D9460208F7460208C1460208CC
:1046500061410208614102086141020861410208AA
:10466000614102086141020861410208614102089A
:10467000614102086141020861410208614102088A
:104680006141020861410208B1460208B9460208C8
:1046900061410208C546020861410208D14602088C
:1046A000614102086141020861410208DD460208D9
:1046B000204605F0C5F853E5204605F0B9F84FE56A
:1046C00003234371204605F0ACF849E50323437109
:1046D000204605F0A0F843E503234371D0F83436B3
:1046E000B0F8342603F0010383F0010363F3000202
:1046F000A0F8342634E503234371D0F834365B0741
:104700007FF52EAD9EE5A368BFF35B8F03F23463A4
:1047100053E8002F22F0080243E800210029F7D1D6
:10472000BFF35B8F2DB0BDE8F08F1E46B246F5E5B6
:1047300043DB02085ADA02083CDB020899D6020879
:1047400070B504464068294A1E46036886B01D6855
:104750002346A8470546002845D101464FF4DC62B0
:10476000A06806F09DF9A0682368036000F5D96091
:1047700007F04AFBA368B3F83426186842F0100229
:10478000A3F83426B3F8342665F38202A3F834265E
:10479000B3F8342642F02002A3F8342601221A711D
:1047A000134A5A6204F009FEA36883F82800A3683C
:1047B000B3F8342665F34102A3F834260E2303939D
:1047C0000A9B0094CDE90163D4E90A01094BCDE9C4
:1047D00004554FF4006203F0DBFAA368616AC3F882
:1047E000DC0607F09CFC284606B070BDE193020889
:1047F000180050003148020838B583681B79012B36
:10480000054610D10949406904F0DDFDAB6800247C
:10481000022228461A7183F834401C86DC8500F099
:1048200069F9204638BD6FF02200FBE742DB020841
:104830002DE9F0410446884617464FF4CF664FF401
:10484000C765A068284407F0C9FDA0680022431985
:1048500001213044103503F091FCB5F5CF6F06F11E
:104860001406EED16068036800219B689847002811
:1048700040D1B8F1000F04D03A462146E06905F076
:10488000E1F92046FFF7B8FFA0BB1B4F1B4EA06805
:1048900003214FF0FF3200F5CF6003F083FC0546A3
:1048A000A0684FF0FF3100F5D96002F037FE3DB14E
:1048B0002B462046124A0221BDE8F04105F01DB802
:1048C000606803685B6903B198473A462046022155
:1048D00004F047FD32462046002104F042FD204608
:1048E000084A012104F03DFDA06800F5D96002F0FE
:1048F00085FECCE7BDE8F0818D9302082D410208CA
:1049000045DB0208F593020810B5044613460A4633
:104910000146064801F0F2FA23691B7923B12046CB
:10492000BDE8104004F0B9BD10BD00BFB39402084B
:1049300070B5049C1D4661B91148124B1B1AB2EBAD
:10494000D30F04D200EBC20253682B600EE00023A9
:10495000FBE70028FBD00378466843B121461046A8
:10496000B0472368002B08BF00242C6070BD1423BF
:104970005A43B118B358002B18BF0B46E5E700BFE8
:10498000C0C80208E8C80208014A024904F0EABEA9
:104990005CDB020899D6020859B1002981EAE1726C
:1049A000A2EBE172CCBF412342230249406904F0EB
:1049B000D9BE704760DB020859B1002981EAE17273
:1049C000A2EBE172CCBF432344230249406904F0C7
:1049D000C9BE704760DB02082DE9F0410646054676
:1049E00056F8084F04F11C00E28D218E04F0A7FD5B
:1049F0003046B4F82080678C04F0C1FE18B10A4933
:104A0000686904F0AFFEB84507D1A18BE38B284657
:104A1000C91ABDE8F041FFF7CFBF618C238C28464F
:104A2000C91AFFF7B9FFF0E743DB020882680249C1
:104A30004069343204F096BE99D6020870B5044637
:104A40000D46164612B14069FFF79EFFA268138E0D
:104A50003433134420460C4A002104F04EFF204614
:104A600050F8083FDA8D1A8604F089FE28B106B1A5
:104A70001DB10649606904F075FE6942204609B21D
:104A8000BDE8704004F0A3BE99D6020843DB0208DB
:104A900013B583688DF80710D3F83426D20704467F
:104AA0001DD5198EDA8D8A4219D0481C18860B4400
:104AB0009DF8072083F83420A368D3F834365B07C9
:104AC0000BD56069094904F04DFE204604F06BFEE9
:104AD00018B10749606904F045FE02B010BD01221B
:104AE0000DF10701204604F016FFF6E764DB02082B
:104AF00043DB020883680A4A1B6810B50446032199
:104B000004F0FBFEA368D3F834365B0707D52046D4
:104B1000FFF78CFF2046BDE81040FFF75DBF10BDDA
:104B200099D6020813B5074802F0C2FA00240123FF
:104B3000014600941A460448FFF702FE204602B0E0
:104B400010BD00BFCED1020888CC0208406810B565
:104B50000C4601688B606368C1E900422BB19B6C15
:104B60001BB1024604492046984763689B6A0BB113
:104B700020469847002010BD799A02082DE9F0439D
:104B8000082385B00D460968047C064605F0D6F872
:104B900068B90821204605F01CF92968B389014449
:104BA0008AB21B1A9A420746296003D0002005B03A
:104BB000BDE8F0830B0C03BFF38903F1FF3301EB76
:104BC0000341A1F58031296008236A46304605F08B
:104BD000B5F80028EBD16A46034612F8011BFF29FD
:104BE00024D10133082BF8D173682B60DFE7E41B75
:104BF0002C6004EA03099846A145D7D208230DEB9F
:104C000003022146304605F099F80028CFD102A8CA
:104C100005F0CAF840B9BDF80A30BDF80C202C6088
:104C200009EA080913449944E41BE5E7684605F0DE
:104C3000BBF82C68044B0028D9D11C40BDF80230C9
:104C40001C442C60B3E700BF0000FFFF2DE9F04FCC
:104C5000044693B00821007C05F0BBF863681B0C88
:104C60001B04814601A9E089019305F0BBF8019B73
:104C7000A18904AD1944A1EB09012A460823204665
:104C8000029105F05BF8021E70DB0023EA5CFF2A4C
:104C900070D10133082BF9D10199204605F0CFF8E6
:104CA000024663E05645354628BF55460AAA2B46BC
:104CB0003946204605F042F80246002856D135B163
:104CC0000AAA2B46A168204605F0DEF802462946CE
:104CD000207C05F07EF8A3681844A060002A45D126
:104CE000AAEB050A2F4437E0D945D5D006AA02A978
:104CF0002046DDF808B0FFF741FF0246002835D115
:104D00006368039308AA03A92046039DFFF736FFB3
:104D1000024658BBBDF82020BDF818309A42F1D1A8
:104D200008A805F041F80028ECD1AB45DCD1BDF86E
:104D30001C30002BD8D0BDF81A300BEA08071F44EE
:104D400006A8A368ADF81A3005F03AF8267CBDF83D
:104D50001CA0764206F02006BAF1000FA2D106A9E7
:104D6000204605F0D5F802460028BDD0104613B005
:104D7000BDE8F08F029B054ABDF81210A3EB0909AC
:104D800013400B4402939046B0E700BF0000FFFFC2
:104D90002DE9F04100F114060D4686B00446304678
:104DA00007F032F8284602F083F9A062002800F0EC
:104DB000B18043681B7D2374202B05D96FF0150546
:104DC000284606B0BDE8F08103AA216806F075FB0D
:104DD0000028F3D1A289049BB2FBF3F503FB152550
:104DE000002DEBD1E389012BE8D94FF0FF3130469C
:104DF000009502F093FB0821207C04F0EAFF0746AF
:104E0000E289ABB29A421AD9A18901EB0541C91BCB
:104E100008222046009104F0EFFF28B96946E08996
:104E200004F0E0FF0135EBE76946E08904F0DAFFC2
:104E300008220099204604F0DFFF0028EED10099F7
:104E40000822C91B2046009104F0D6FF0028F6D1A5
:104E5000009961600B0C1B04A360A3894FEA47080B
:104E60008AB2A3EB08039A4218D03944082301AA56
:104E70002046009104F062FF0546002841D101A8B8
:104E800004F092FF50B9A068BDF80620BDF80810E4
:104E90000244207C04F09DFF1044A060D4E901216D
:104EA000521A0AD0204604F0A7FF051E29DB04D0C1
:104EB000A368227C1344A360F0E76368174FE0897E
:104EC0003B406946009304F08DFFA289009920467B
:104ED00004F092FF051E14DB13D06168204604F035
:104EE000AEFF054668B9626802EA0703A289134467
:104EF000A3EB080363603B40A3602046FFF7A6FED8
:104F00000546304602F07AFB002D7FF459AF0123AD
:104F1000637455E76FF0050552E700BF0000FFFF1F
:104F200070B586B00D4601A9064600F0A3F8044608
:104F300078BB01988168102302AA103905F01DFA88
:104F40000446019805F018FA1CBB1022134902A868
:104F500005F055FDD8B1DDE902231340049A134052
:104F6000059A134001330CBF032402242C703146F0
:104F7000012005F00FF9041E0DDB6C703146002096
:104F800005F008F9041EA4BFAC70002403E001245E
:104F9000ECE7002CEADA204606B070BD20CD02080E
:104FA000F7B502206946FFF7BBFF10BB01A904203B
:104FB000FFF7B6FFE8B99DF800109DF804409DF892
:104FC00002509DF806609DF801700F4B1A780AB1E7
:104FD0008A4212D15A780AB1A2420ED19A780AB105
:104FE000AA420AD1DA780AB1B24206D11A7912B9C4
:104FF000587903B0F0BDBA42FAD00130032803F16A
:105000000603E3D10120F4E792DB020837B5054639
:1050100001A9042000F02EF8044680B90198094A3D
:1050200081681023103905F0C5F90446019805F090
:10503000A3F924B91DB1042005F0C3F804462046A5
:1050400003B030BD20CD0208084B30B51D68084BB9
:10505000196800239D4202DC0022104630BD1C016D
:105060000A190C5D8442F8D00133F3E780CD0208C1
:10507000C48F0020084B1B6810B50C462BB1FFF7FE
:10508000E3FF28B12060002010BD6FF00C00FBE7AB
:105090006FF00100F8E700BFC48F002008B5044698
:1050A0004FF01002EFF3118382F31188BFF36F8F7B
:1050B00000F04CFB204600F04FFE034803F05FFE7B
:1050C00000F066FDFCE700BFB5DB02080A2838B532
:1050D0000446074D04D1286843680D215B68984752
:1050E00028684368E1B25B689847204638BD00BF36
:1050F0003C0B002010B5044C204601F0A9FA2046D4
:10510000BDE81040FEF7C4B9CD50020808B5044808
:1051100001F0CEFF034B1860FFF7ECFF002008BD45
:10512000CED102083C0B00202DE9F84395680D4EC6
:1051300004460F464FF0010805F10409BC4201DBAB
:10514000BDE8F883726908FA04F333EA020207D172
:10515000736155F834301BB159F834102046984724
:105160000134EBE7003C01401F2808B505DC164A76
:105170000123116883400B431360431F042B19D98B
:10518000A0F10A03052B17D9042804D8063000F033
:10519000A7FC002008BD1038062811D8DFE800F071
:1051A0000E100410100608002A20F0E70220EEE797
:1051B0000320ECE71720EAE72820E8E70120E6E7EC
:1051C0006FF02200E6E700BF003C0140CA0710B5BF
:1051D00007D51F2805DC084B01229C68824022432A
:1051E0009A608B0707D51F2805DC034A0123D16885
:1051F00083400B43D36010BD003C0140074930B5EC
:105200008C6854F8301004EBC00521B944F8302004
:105210006B60084630BD6FF00F00FBE78490002004
:105220000B6884B0032B2DD8DFE803F0020E1822A0
:10523000164A4B68116B19431163126B13400093AC
:10524000009B002004B07047104A4B68516B194313
:105250005163526B13400193019BF2E70B4A4B6879
:10526000116C19431164126C13400293029BE8E71E
:10527000064A4B68516C19435164526C13400393B6
:10528000039BDEE76FF02200DCE700BF003802403E
:105290000B68032B20D8DFE803F0020A1118104A2C
:1052A0004968136B23EA01031363002070470C4A1B
:1052B0004968536B23EA01035363F6E7084A4968D8
:1052C000136C23EA01031364EFE7054A4968536C42
:1052D00023EA01035364E8E76FF02200704700BF40
:1052E00000380240074B09681B68032907D8DFE82C
:1052F00001F0030302035B081360002070476FF0A6
:1053000022007047748F002030B587B000234FF41F
:105310008052CDE90032029300F038F803A805F07E
:1053200009F9184B1A68910706D41A6842F001026D
:105330001A601A689207FCD5124CA36823F0030385
:10534000A360A36823F0F003A360A56815F00C0523
:10535000FBD123680C4823F080732360636823F03B
:10536000706343F08063636003AA6B462946FEF7CF
:10537000ADF9236823F00103236005F0E2F8284625
:1053800007B030BD00380240001BB700064B1A6C56
:1053900042F080521A641B6C82B003F08053019378
:1053A000019B02B0704700BF0038024073B504464D
:1053B00006090D46104612B9114801F079FE002386
:1053C0000093104B53F826300193013302D16FF054
:1053D000040012E0436869461B6898470028F6D12C
:1053E0002011800200F1804005F00F032A4604F0EE
:1053F0000F0100F5003005F09DFF02B070BD00BF49
:10540000E9DB020884CD0208F8B5044609480E46D7
:1054100001F04EFE00250746B54204F1080400D114
:10542000F8BD3A4654F8041C14F8080CFFF7BEFF08
:105430000135F1E7E9DB0208024B4AF6AA221A60BD
:1054400000207047003000402DE9F84F83688C68D9
:105450001E684B684FF47A755D43002C43D1284693
:10546000FBF770F82349DFF89CA0FBF777F9224996
:10547000FBF7C0F84FF0040B8146E7B20BFA07F0D8
:1054800080B2FBF763F801464846FBF767F95146DF
:1054900080460134FBF76AFA0028EED14046FBF75C
:1054A0006FFA164B643D9D4200F1FF341ED8062F63
:1054B0001CD8B4F5805F19D206F0B9FE0546F06835
:1054C00010F0030007D10E4B45F255521A60776079
:1054D000B460BDE8F88F06F0AAFE401B3028EED974
:1054E0006FF01200F5E76FF02200F2E76FF01500A1
:1054F000EFE700BF002474490000FA469CFF8F01CB
:105500000030004000F07F458B0741BF074A936899
:1055100043F48053936011F0010003BF044B4CF639
:10552000CC421A606FF02200704700BF002004E0F8
:105530000030004070B5054680680E4650F8044BB8
:105540004FF0FF3102F094FBA6B1284605F069F850
:10555000064628B1A868043002F05EFB304670BDF4
:10556000236943F000432361A868043002F054FB30
:105570000026F3E72369002BBFBF034B636003F1F1
:1055800088336360F0E700BF23016745024B0B607F
:1055900003231360704700BFD8CD02080F4B30B50E
:1055A0001A6899681D680E4B1C680E4B12F4803205
:1055B000186818BF224621F07F41024408291A606A
:1055C00007D915F4803F1A6814BF20460020024412
:1055D0001A6018682044401A30BD00BF10E000E097
:1055E000000C0020040C002008B50D4A0D4B126879
:1055F000186810440C4A186011680C4B401AB0FB34
:10560000F3F003FB00131360094B1A68094B1A608F
:1056100000221A6002F006FDBDE8084000F09EB8C6
:10562000000C0020FC0B0020F80B0020007701008C
:1056300010E000E0040C0020084B102283F8232027
:10564000074B084A1A60084B00201860074B5A6045
:1056500098601A6842F007021A60704700ED00E097
:10566000000C0020FF760100040C002010E000E098
:1056700070B5204C51B1431C08D11F4A136823F068
:10568000010313604FF07F43236070BD0138AD28E4
:105690002BDC00282BDD194E46434FF01003EFF3AF
:1056A000118583F31188BFF36F8FFFF777FF144BDA
:1056B00012491A6810441860124B1A68C2F5BB33BD
:1056C000FF3333440344101AB3FBF1F301FB03002F
:1056D0000D4B206000221A60074B013858609A6019
:1056E00085F31188BFF36F8FCFE7AD20D3E741F289
:1056F0007076D2E7000C002010E000E00077010097
:10570000FC0B0020F80B0020040C002010B54FF01B
:105710001003EFF3118483F31188BFF36F8FFFF74A
:105720003DFF074B074A1B6812689B1A184484F315
:105730001188BFF36F8F044BB0FBF3F010BD00BFB7
:10574000FC0B0020F80B002000770100024A1368D0
:1057500023F001031360704710E000E00448816803
:10576000006A884203D003494FF080520A607047B4
:10577000840F002004ED00E0044800231021C2182B
:105780000133662B82F80013F9D1704700E100E085
:10579000094A0A49936809689966094958664B6835
:1057A00043F080534B60002383F31188BFF36F8F66
:1057B0009368986E704700BF840F0020A4CF020842
:1057C00000ED00E0102080F31188BFF36F8F1149C6
:1057D0008A684FF028001044EFF3098C80E8F01F2E
:1057E0000D4F4FF000660A6A8A603E60506E0023DB
:1057F000536680F3118804B50648806804F0CEFF34
:10580000BDE8044002F1280090E8F01F8CF30988FD
:1058100070470000840F002004ED00E01EF0040F2C
:105820000CBFEFF30880EFF30980816931F8021CA7
:1058300011F0FF010229FFD001B504F0A4FF01BD62
:1058400038B51C4C05461C4803F099FAA26AD106EB
:1058500002D51A4803F093FAA36A1A0702D518482A
:1058600003F08DFA134CA36A9B070ED5154803F07D
:1058700086FA616BA36A180607D5134803F07FFA0E
:105880001DB1A36A23F08003A3620A4CA26AD20767
:1058900002D50E4803F073FAA36A9B0602D50C48A2
:1058A00003F06DFA034B9A6A9A6A42F0FF029A6219
:1058B000002038BD00ED00E08ADC0208A1DC02080F
:1058C000D5DC0208E9DC020802DD020819DD020865
:1058D00039DD020838B51E4C05461E4803F04FFA64
:1058E000A26AD10402D51C4803F049FAA36A1A053A
:1058F00002D51A4803F043FA154CA36A9B050ED54E
:10590000174803F03CFAA16BA36A180407D51548A1
:1059100003F035FA1DB1A36A23F40043A3620C4CD3
:10592000A36A590502D5104803F029FAA36ADA05DB
:1059300009D50E4803F023FA054A936A43F47F43DE
:105940009362002038BDA36A9B04F5D50848F1E7AF
:1059500000ED00E0FCDB020813DC0208D5DC0208E5
:1059600025DC02083FDC020855DC020871DC020875
:1059700039DD020810B5194C194803F000FAA26A83
:10598000930102D5174803F0FAF9A36ADC0102D5A6
:10599000154803F0F4F9114CA26A100302D513481C
:1059A00003F0EDF9A36A590302D5114803F0E7F9B2
:1059B0000A4CA26A920302D50E4803F0E0F9A36AEA
:1059C000DB0302D50C4803F0DAF9044A936A6FEA64
:1059D00003436FEA13439362002010BD00ED00E023
:1059E00069DD020882DD020896DD0208B1DD0208E9
:1059F000D0DD0208F6DD020811DE0208F8B5294DF7
:105A00006E68C6F308040746FEF74CF8E31E092B40
:105A10003BD8DFE803F0053436293A3A3A3A3A38C7
:105A2000214803F0ACF9EC6A14F0020404D01F48DA
:105A300003F0A5F900241CE0EB6A5B0019D51C48B3
:105A400003F09DF91B4B1B781BB10120FFF7F8FEFB
:105A50000CE0194B1B781BB10120FFF73BFF05E061
:105A6000164B1B889BB223B1FFF784FF0628044620
:105A700017D039462046BDE8F84000F0A3B8002012
:105A8000E4E70020E9E70E48D2E70E4B0E490F4845
:105A900016F4F87FA4F1100218BF194603F06FF94D
:105AA000C8E7F8BD00ED00E06BDE020883DE020807
:105AB000A5DE020828ED00E029ED00E02AED00E077
:105AC000C5DE020852DE02083DDE0208FCDE0208E6
:105AD000024A536943F010035361704700ED00E040
