:020000040802F0
:100000003DB8F39600000000000200008CF00000F4
:1000100000000000010200000000000000000000DD
:1000200000000000000000000000000000000000D0
:1000300000000000000000000000000000000000C0
:1000400000000000000000000000000000000000B0
:1000500000000000000000000000000000000000A0
:100060000000000000000000000000000000000090
:100070000000000000000000000000000000000080
:100080000000000000000000000000000000000070
:100090000000000000000000000000000000000060
:1000A0000000000000000000000000000000000050
:1000B0000000000000000000000000000000000040
:1000C0000000000000000000000000000000000030
:1000D0000000000000000000000000000000000020
:1000E0000000000000000000000000000000000010
:1000F0000000000000000000000000000000000000
:1001000000000000000000000000000000000000EF
:1001100000000000000000000000000000000000DF
:1001200000000000000000000000000000000000CF
:1001300000000000000000000000000000000000BF
:1001400000000000000000000000000000000000AF
:10015000000000000000000000000000000000009F
:10016000000000000000000000000000000000008F
:10017000000000000000000000000000000000007F
:10018000000000000000000000000000000000006F
:10019000000000000000000000000000000000005F
:1001A000000000000000000000000000000000004F
:1001B000000000000000000000000000000000003F
:1001C000000000000000000000000000000000002F
:1001D000000000000000000000000000000000001F
:1001E000000000000000000000000000000000000F
:1001F00000000000000000000000000000000000FF
:1002000068470020816002084FAB0208255F0208A2
:10021000255F0208255F0208255F0208255F0208A6
:10022000255F0208255F0208255F0208A55B02081A
:10023000255F0208255F02084D5B0208715902081C
:1002400059600208596002085960020859600208A2
:100250005960020859600208596002085960020892
:100260005960020859600208596002085960020882
:100270005960020859600208596002085960020872
:100280005960020859600208596002085960020862
:100290005960020859600208596002085960020852
:1002A0005960020859600208596002085960020842
:1002B0005960020859600208596002085960020832
:1002C0005960020859600208596002085960020822
:1002D0005960020859600208596002085960020812
:1002E0005960020859600208596002085960020802
:1002F00059600208596002085960020859600208F2
:1003000059600208596002085960020859600208E1
:1003100059600208596002085960020859600208D1
:1003200059600208596002085960020859600208C1
:1003300059600208596002085960020859600208B1
:1003400059600208596002085960020859600208A1
:100350005960020859600208596002085960020891
:100360005960020859600208596002085960020881
:100370005960020859600208596002085960020871
:100380005960020859600208596002085960020861
:100390005960020859600208596002085960020851
:1003A0005960020859600208596002085960020841
:1003B0005960020859600208596002085960020831
:1003C0005960020859600208596002085960020821
:1003D000596002085960020880F0004002E000BF46
:1003E00081F0004142001FBF5FEA410392EA030F20
:1003F0007FEA226C7FEA236C6AD04FEA1262D2EB6A
:100400001363C1BFD218414048404140B8BF5B426E
:10041000192B88BF704710F0004F40F4000020F007
:100420007F4018BF404211F0004F41F4000121F01D
:100430007F4118BF494292EA030F3FD0A2F1010267
:1004400041FA03FC10EB0C00C3F1200301FA03F1A5
:1004500000F0004302D5494260EB4000B0F5000FC8
:1004600013D3B0F1807F06D340084FEA310102F187
:100470000102FE2A51D2B1F1004F40EBC25008BF39
:1004800020F0010040EA03007047490040EB000003
:1004900010F4000FA2F10102EDD1B0FA80FCACF132
:1004A000080CB2EB0C0200FA0CF0AABF00EBC25031
:1004B00052421843BCBFD0401843704792F0000F1F
:1004C00081F4000106BF80F400000132013BB5E772
:1004D0004FEA41037FEA226C18BF7FEA236C21D0E8
:1004E00092EA030F04D092F0000F08BF084670474D
:1004F00090EA010F1CBF0020704712F07F4F04D11B
:10050000400028BF40F00040704712F100723CBF2D
:1005100000F50000704700F0004343F0FE4040F457
:10052000000070477FEA226216BF08467FEA236315
:100530000146420206BF5FEA412390EA010F40F400
:10054000800070474FF0000304E000BF10F000434C
:1005500048BF40425FEA000C08BF704743F0964333
:1005600001464FF000001CE050EA010208BF70474E
:100570004FF000030AE000BF50EA010208BF7047D5
:1005800011F0004302D5404261EB41015FEA010CEA
:1005900002BF84460146002043F0B64308BFA3F1E2
:1005A0008053A3F50003BCFA8CF2083AA3EBC253C4
:1005B00010DB01FA02FC634400FA02FCC2F12002E3
:1005C000BCF1004F20FA02F243EB020008BF20F01A
:1005D0000100704702F1200201FA02FCC2F1200280
:1005E00050EA4C0021FA02F243EB020008BF20EA75
:1005F000DC7070474FF0FF0C1CEAD0521EBF1CEAA3
:10060000D15392EA0C0F93EA0C0F6FD01A4480EA90
:10061000010C400218BF5FEA41211ED04FF0006379
:1006200043EA501043EA5111A0FB01310CF00040A5
:10063000B1F5000F3EBF490041EAD3715B0040EACB
:10064000010062F17F02FD2A1DD8B3F1004F40EB9B
:10065000C25008BF20F00100704790F0000F0CF06E
:10066000004C08BF49024CEA502040EA51207F3A32
:10067000C2BFD2F1FF0340EAC250704740F400000D
:100680004FF00003013A5DDC12F1190FDCBF00F0FE
:1006900000407047C2F10002410021FA02F1C2F1AC
:1006A000200200FA02FC5FEA310040F1000053EA48
:1006B0004C0308BF20EADC70704792F0000F00F096
:1006C000004C02BF400010F4000F013AF9D040EA9C
:1006D0000C0093F0000F01F0004C02BF490011F430
:1006E000000F013BF9D041EA0C018FE70CEAD1532E
:1006F00092EA0C0F18BF93EA0C0F0AD030F0004CAE
:1007000018BF31F0004CD8D180EA010000F0004061
:10071000704790F0000F17BF90F0004F084691F01F
:10072000000F91F0004F14D092EA0C0F01D1420259
:100730000FD193EA0C0F03D14B0218BF084608D122
:1007400080EA010000F0004040F0FE4040F400006C
:10075000704740F0FE4040F4400070474FF0FF0CFF
:100760001CEAD0521EBF1CEAD15392EA0C0F93EA46
:100770000C0F69D0A2EB030280EA010C49024FEA98
:10078000402037D04FF0805343EA111143EA101351
:100790000CF000408B4238BF5B0042F17D024FF409
:1007A000000C8B4224BF5B1A40EA0C00B3EB510FE4
:1007B00024BFA3EB510340EA5C00B3EB910F24BFCD
:1007C000A3EB910340EA9C00B3EBD10F24BFA3EB52
:1007D000D10340EADC001B0118BF5FEA1C1CE0D11A
:1007E000FD2A3FF650AF8B4240EBC25008BF20F0CD
:1007F000010070470CF0004C4CEA50207F32C2BF21
:10080000D2F1FF0340EAC250704740F400004FF0BD
:100810000003013A37E792F0000F00F0004C02BFEE
:10082000400010F4000F013AF9D040EA0C0093F0B8
:10083000000F01F0004C02BF490011F4000F013B12
:10084000F9D041EA0C0195E70CEAD15392EA0C0F7A
:1008500008D142027FF47DAF93EA0C0F7FF470AFB2
:10086000084676E793EA0C0F04D14B023FF44CAFF5
:1008700008466EE730F0004C18BF31F0004CCAD18A
:1008800030F000427FF45CAF31F000437FF43CAFC6
:100890005FE700BF4FF0FF3C06E000BF4FF0010CE8
:1008A00002E000BF4FF0010C4DF804CD4FEA4002CA
:1008B0004FEA41037FEA226C18BF7FEA236C11D014
:1008C00001B052EA530C18BF90EA010F58BFB2EBC7
:1008D000030088BFC81738BF6FEAE17018BF40F047
:1008E000010070477FEA226C02D15FEA402C05D1FB
:1008F0007FEA236CE4D15FEA412CE1D05DF8040B80
:10090000704700BF844608466146FFE70FB5FFF712
:10091000C9FF002848BF10F1000F0FBD4DF808EDCA
:10092000FFF7F4FF0CBF012000205DF808FB00BFBB
:100930004DF808EDFFF7EAFF34BF012000205DF815
:1009400008FB00BF4DF808EDFFF7E0FF94BF012062
:1009500000205DF808FB00BF4DF808EDFFF7D2FF5F
:1009600094BF012000205DF808FB00BF4DF808EDA2
:10097000FFF7C8FF34BF012000205DF808FB00BF6F
:1009800042000ED2B2F1FE4F0BD34FF09E03B3EBF9
:10099000126209D44FEA002343F0004323FA02F025
:1009A00070474FF00000704712F1610F01D1420211
:1009B00002D14FF0FF3070474FF00000704700BF8A
:1009C00053B94AB9002908BF00281CBF4FF0FF31B6
:1009D0004FF0FF3000F00CB8ADF1080C6DE904CE1B
:1009E00000F008F8DDF804E0DDE9022304B0704708
:1009F000704700BF2DE9F04F099F154604468E460B
:100A00001E46002B40F0CC808A42B2FA82FC4CD9C0
:100A1000BCF1000F0BD0CCF1200801FA0CFE20FA3B
:100A200008F802FA0CF548EA0E0E00FA0CF44FEA48
:100A300015491FFA85F8BEFBF9FA210C09FB1AE3E8
:100A40000AFB08FB41EA03439B452AD9EB180AF14C
:100A5000FF3004D29B4502D9AAF102002B44A3EB3C
:100A60000B03A4B2B3FBF9F209FB123302FB08F843
:100A700044EA0344A04516D92C1902F1FF3303D2EE
:100A8000A04501D9931E2C44A4EB080443EA00407E
:100A900027B124FA0CF400233C607B603146BDE8AA
:100AA000F08F5046DBE71346EEE702B9FFDEBCF1FC
:100AB000000F2ED18B1A01264FEA154EAAB2B3FBB6
:100AC000FEF8210C0EFB183308FB02F941EA034340
:100AD000994561D9EB1808F1FF3004D2994502D944
:100AE000A8F102002B44A3EB0903A4B2B3FBFEF16F
:100AF0000EFB11334A4344EA0344A2424ED92C1957
:100B000001F1FF3303D2A24201D98B1E2C44A41A57
:100B1000BCE7CCF1200E02FA0CF521FA0EF901FA2D
:100B20000CF320FA0EFE4EEA03034FEA154800FAD2
:100B30000CF4B9FBF8F11FFA85FE08FB1192180CB2
:100B400001FB0EF640EA0242964221D9AA1801F1B1
:100B5000FF3003D2964201D9881E2A44921B9BB2D1
:100B6000B2FBF8F908FB192209FB0EFE43EA024327
:100B70009E450FD9EB1809F1FF3604D29E4502D9E4
:100B8000A9F102062B44A3EB0E0346EA004693E7C5
:100B90000846E3E74E46F6E74046A4E70B46B6E7CD
:100BA0008B4205D90FB1C7E900010026304675E731
:100BB000B3FA83FCBCF1000F0FD18B4201D3824208
:100BC00009D8841A61EB030E0120002F6AD0C7E90F
:100BD000004E002662E76046F7E7CCF1200E03FAEC
:100BE0000CF322FA0EF521FA0EF41D4301FA0CF370
:100BF00020FA0EF10B434FEA154A00FA0CF6B4FB4B
:100C0000FAF91FFA85F80AFB19401C0C09FB08F1D8
:100C100044EA0044A14202FA0CF23FD92C1909F12E
:100C2000FF3004D2A14202D9A9F102002C44641A77
:100C30009BB2B4FBFAF90AFB194409FB08F843EA32
:100C4000044188452CD9691809F1FF3304D288453D
:100C500002D9A9F10203294443EA0040A1EB0801AB
:100C6000A0FB02894945C2464C4602D306D14645FF
:100C700004D2B8EB020A69EB0504013897B1B6EB70
:100C80000A0361EB040606FA0EFE23FA0CF34EEAA1
:100C9000030326FA0CF6C7E900369AE74846C6E78A
:100CA0004B46D9E73E46F9E60146014807F08BBEC0
:100CB000E08C002070B58EB006AC16680546202288
:100CC000002120460AF0CCF80122009203230D49AE
:100CD000204605F09FFE20460AF04FF801462046C8
:100CE00007F02AFD084B094ACDE90303084B00939E
:100CF0002846CDE90164074B002108F07DFD002066
:100D00000EB070BD69D6020888D6020874D60208F3
:100D1000ACE0020872D602081FB5074B02931368B5
:100D20000193064B0093064A064B002108F064FD30
:100D3000002005B05DF804FB88D60208ACE002088C
:100D40008AD6020872D602081FB50B4B02931368AD
:100D500001930A4B0A4A009300210A4B08F04CFD0C
:100D60004FF47A7007F0B0F8012004F05BFB00202C
:100D700005B05DF804FB00BF88D60208ACE00208AD
:100D80008AD6020872D6020808B50949094800F057
:100D9000EDFF10B1084808F0D2F9084807F000FA52
:100DA000074A0849084808F0CAF9002008BD00BFF2
:100DB00012D60208E08C002019D602087400002028
:100DC00088D6020872D602083FD602082DE9F04103
:100DD000154F164E3968164D86B000248046CDE971
:100DE0000444D1B1084600F08FF80822014604A857
:100DF0000AF00CF8082104A83F6807F09DFCCDE933
:100E00000057CDE902060B4B0B4A2146404608F03D
:100E1000F3FC002006B0BDE8F081CDE90056054B9B
:100E2000064A08F0E9FCF4E73402002088D60208FC
:100E3000ACE0020872D6020847D602085ED6020865
:100E40000A460146014806F0CFBC00BFE8970020E3
:100E500030B585B005F0C2FF02F018F9044628B19C
:100E6000154808F06CF9204605B030BD02F0F2F8E4
:100E700001380128F7D8114806F0DEFA02238DF870
:100E80000C3041F2883301930D4B02934368009478
:100E90009B686946054698470A4807F081F80A4862
:100EA00007F07EF84FF47A6007F00EF86B680021C7
:100EB000DB6828469847F5E7F6D502080DD6020804
:100EC000B586020874970020A49700203138C0B27C
:100ED00035289ABF014B185C002070477ED7020866
:100EE00030B5084D00238B4201DB104630BDC45C99
:100EF00084EA1224013335F8144084EA022292B2C3
:100F0000F1E700BFF0D3020810B5094C1C2220FA0B
:100F100002F101F00F014BB2092994BF303357336E
:100F2000043A04F8013B131DF1D1014810BD00BF84
:100F30003C10002010B5094C0C2240FA02F101F0DF
:100F40000F014BB2092994BF30335733043A04F8E8
:100F5000013B131DF1D1014810BD00BF4416002014
:100F600010B503681B786C2B044612D10C484FF463
:100F70000072002109F074FF002184F81611A4F812
:100F8000141104F114004FF48072BDE8104009F010
:100F900067BF622BF0D14FF4007200210148E9E7EE
:100FA00044120020441000202DE9F04385B00023B6
:100FB00007460E4610460DF10601ADF8063007F063
:100FC00094FB0546002838D1304609F0D6FEBDF81E
:100FD00006200146304607F0B3FB80BB06F1FF3820
:100FE00007F1080918F8014FE4B91649386809F003
:100FF000CBFE80B9304602948DF80C4007F0F4FB2C
:10100000114A0346052102A805F0ECFC02AE0837A0
:1010100016F8011B61B9002D18BF0424204605B045
:10102000BDE8F0832146484607F0B8FB0544D9E700
:10103000384607F0B3FB0544EAE70224EEE7032451
:10104000ECE700BF1AE0020822D90208012A7FB5A6
:1010500005460C460D4E0DD1FFF782FF2B6800931D
:1010600001960B4B0B4A0021204608F0C5FB0020DF
:1010700004B070BD01230296019303680093064AF1
:10108000034B0021204608F0B7FBF0E788D60208A2
:1010900072D6020829D9020832D90208F0B5012A0D
:1010A00085B004460D46184E28D10A9809F065FE11
:1010B0000A990246204607F0EDFB6768384609F0BA
:1010C0005CFE39460246204607F0E4FB23680146F1
:1010D00050B104220296019200930C4A0C4B00215D
:1010E000284608F089FB06E0CDE90036094A084B9E
:1010F000284608F081FB002005B0F0BD01230296D0
:1011000001930368E8E700BF88D6020866D90208A1
:1011100072D6020874D9020870B586B000240E4653
:101120000DF116010546ADF8164007F067FB094BB7
:101130000393BDF81630029305F1140301932B6855
:1011400000933046044B054A214608F055FB2046E3
:1011500006B070BD88D6020872D6020853D90208BC
:10116000012A7FB505460C460D4E0DD107F06CFBEC
:101170002B68009301960B4B0B4A0021204608F088
:101180003BFB002004B070BD01230296019303686D
:101190000093064A034B0021204608F02DFBF0E7A0
:1011A00088D6020872D602083ED9020847D902083A
:1011B000032A2DE9FF4104460D46194E2BD1D3E9F0
:1011C0000112FFF7F1FE18B1CDE9010623680FE027
:1011D000D4F80480404609F0D0FD4146024620463E
:1011E00007F058FB2368014650B104220296019291
:1011F00000930C4A0C4B0021284608F0FDFA06E04B
:10120000CDE90036094A084B284608F0F5FA0020D7
:1012100004B0BDE8F081012302960193D6E700BF38
:1012200088D602087FD9020872D602088BD9020834
:101230008B07F0B540D18B0803EB430344181360D0
:1012400014F8015C1D4E3D2D04BF03F1FF33136004
:1012500014F8023C1A4D3D2B02BF136803F1FF3313
:1012600013600446231A8B4201D30120F0BD23787A
:101270006278A7783D2B14BFF35C00233D2A14BF8E
:10128000B25C00223D2F18BF16F807C0E77808BFF0
:101290004FF0000C12033D2F02EB834314BFF75DA8
:1012A000002703EB8C133B441A0C2A701A0A6A704D
:1012B000AB7004340335D5E70020D7E7E2D7020846
:1012C000441400202DE9F0470E4680B303681B78D4
:1012D0006C2B2ED0622B344D18BF0025B0F81411A2
:1012E000DFF8D08002310323AC46B1FBF3F10027D5
:1012F0008900B0F81491B9451DDC6A182B4F94464B
:101300004FF0030E4FF03D08B0F81431B3FBFEF47C
:1013100004EB44041B1B9BB2ACEB020457F8239074
:10132000A1453DDC284607F007FA30800120BDE8E2
:10133000F0871F4DD2E77C1CC319A1451B7D29DD19
:1013400007F1020E0444F14594F814A026DD86440A
:10135000FC1C9EF8142002EB034303EB0A239A0CB7
:101360000CF1040C18F802200CF8042CC3F305321D
:10137000274618F802200CF8032CC3F3851203F05B
:101380003F0318F8022018F803300CF8022C0CF870
:10139000013CAEE74FF0000A0022DCE77446FBE7B1
:1013A00002F8018DB0E700BF4410002058CD0208BC
:1013B00044120020E2D802082DE9F04186B000274F
:1013C000032A05460C4698460597224E3DD1D3E99F
:1013D000011207F043FA38B1CDE901062B680093FA
:1013E0001D4A1E4B394620E0D8F80470384609F0F3
:1013F000C4FC05AA01463846FFF71AFF074628B184
:10140000059A1749284607F045FA07464FF4007237
:101410000021134809F024FD2B6857B10422CDE9BF
:1014200000320E4B0C4A02960021204608F0E4F9E7
:1014300007E0CDE900360B4A084B3946204608F054
:10144000DBF9002006B0BDE8F0810123029601938C
:10145000C4E700BF88D60208C9D7020872D60208BE
:1014600044140020D7D7020870B586B00023ADF829
:10147000163003681B786C2B05460E461AD0622B7B
:101480000D4C18BF00240DF11601284607F01CFA78
:1014900068B10A4B0393BDF81630094ACDE9014300
:1014A0002B6800930021074B304608F0A5F9002077
:1014B00006B070BD044CE6E74410002088D6020850
:1014C000B4D7020872D6020844120020F0B50446D0
:1014D00080681E464368002285B0CDE902221A6961
:1014E0000D460AB102A990470A2200217068114FE7
:1014F00009F0B2FB0290A0684368DB685BB923681F
:1015000000930D4A0D4B01970021284608F074F90D
:10151000002005B0F0BD02A9984706460028EED18C
:10152000FA2006F0D1FC236800930197034B044A8C
:101530003146EAE788D60208A9D9020872D602081D
:10154000B4D9020870B58CB0054607AC0E4614221B
:1015500000212046CDE9051109F082FCA868436806
:101560001B690BB105A99847059A0D49204605F05E
:1015700051FA204609F001FC0146204607F0DCF84C
:10158000084B0194CDE902032B6800933046064BCB
:10159000064A002108F030F900200CB070BD00BFF1
:1015A000A0E0020888D6020872D6020894D9020880
:1015B000044B012283F83C2440F2F112A3F81822D4
:1015C000704700BFF48C0020044B022283F83C24B7
:1015D00040F2FB12A3F81822704700BFF48C0020E1
:1015E000014B93F83C047047F48C002030B597B061
:1015F00004462822002102A809F032FC28220021FA
:101600000CA809F02DFC14F1820F304D30DC14F1E0
:10161000870F42DA14F1990F08DC14F19A0F09DAF6
:1016200014F19F0F3CD06FF0850337E004F197036E
:10163000012BF8D8B5F83834009304F11403244A88
:1016400028210CA802F0FCF80CA809F096FB014632
:101650000CA807F061F90CAB00901E4A282102A8E3
:1016600002F0EEF8D5F8403402A8984717B030BD24
:10167000A12C1AD007DC84B1A02CD4D1B5F8383411
:1016800000930023DBE7A32C1DD016DBA52CCAD1C9
:1016900008F094FF104A03460AE023460F4A07E089
:1016A000B5F8383400932346C9E70D4A4FF4007368
:1016B00028210CA802F0C4F8C6E70A4A28210CA881
:1016C00002F0BEF8C0E76B79074AF1E7F48C00201E
:1016D00029DA020869DA02085ADA020820DA02086E
:1016E0003BDA02084BDA020850DA0208002208B599
:1016F00011460123054808F0CEFF28B16FF08500A0
:10170000BDE80840FFF772BF08BD00BF008D002094
:10171000F0B5284D85B0002306460F4628468DF8C3
:10172000033002938DF80C30A5F5077409F025FB02
:101730001FBB02AE00250135D4F844344FF0FF3111
:101740000DF10300EDB298479DF8033006F8013B18
:10175000042DF0D1102201A902A809F007FAB4F86B
:1017600036140546134807F0D7F8ADB285420CBFD2
:1017700000206FF0810005B0F0BD0544D4F844347A
:101780004FF0FF310DF1030098479DF803302A2BED
:10179000CFD005F8013BB4F836242C2B02F101021E
:1017A000A4F8362402D006F8013BE7E76FF0820088
:1017B000E1E700BF108F002010B5164C032384F81A
:1017C0003C34A423A4F8183204F10C000123A4F83B
:1017D000383408F0A4FF18B16FF08500FFF706FF5A
:1017E000D4F80C020021826808F0EDFF30B16FF0F0
:1017F0008500FFF7FBFE022384F83C34064808F01E
:101800008BFF30B16FF08500FFF7F0FE022384F804
:101810003C3410BDF48C0020008D002008B5064932
:10182000064807F08CFC4FF4FA6006F04DFB0020F0
:10183000BDE8084003F0F6BDBFD9020875DA02081A
:101840002DE9F041ADF5087D0021B44EB3488DF887
:10185000021040F21A2209F003FBA6F5077437467E
:101860002546D4F844344FF0FF310DF1020098477B
:101870009DF802302A2B09D006F8013BB4F8362433
:101880002C2B02F10102A4F83624EAD195F8183283
:101890005B0740F1DA80A149A14809F075FA0446D6
:1018A000002840F0D280014640F2012207A809F04A
:1018B000D7FA9A488DF8034002948DF80C40CDE990
:1018C0000444ADF8184009F058FA04AE0744D5F8BE
:1018D00044344FF0FF310DF1030098479DF8033079
:1018E00007F8013BB5F836242C2B02F10102A5F8CC
:1018F000362402D006F8013BE9E701A90A2204A830
:1019000009F034F9019B1978C0B231B16FF0960437
:1019100020460DF5087DBDE8F081B5F838348342E6
:1019200079D10A2204A809F09BFA04AED5F8443410
:101930004FF0FF310DF1030098479DF8033007F891
:10194000013BB5F836242C2B02F10102A5F8362410
:1019500002D006F8013BE9E70A2201A904A809F030
:1019600005F9019B1B7886B2002BCFD140F20123F1
:101970009E424DD8002E49D0A5F83A640DF11C08BE
:10198000D5F844344FF0FF310DF1030098479DF82E
:10199000032007F8012BB5F8363408F8012B013E77
:1019A0000133B6B2A5F83634002EE9D1D5F8443467
:1019B0004FF0FF310DF1030098479DF803302A2BBB
:1019C000A4D102AF0426D5F844344FF0FF310DF115
:1019D0000300013E98479DF8033007F8013B16F0DD
:1019E000FF06F0D1102201A902A809F0BFF8B5F84E
:1019F000361487B2494806F08FFF019B1B78002BF5
:101A000084D187420AD06FF0950481E7A424CDE702
:101A10006FF09E047CE76FF0980479E7A42C04D162
:101A2000022385F83C34A02472E73346B5F83A2403
:101A30003C4807A908F02FFE002840F09A80B5F82E
:101A400038340133A5F83834EDE795F81832DF075C
:101A500021D53249344809F097F9E0B907908DF85B
:101A60002000012107A8FFF753FE041EFFF650AF28
:101A70002E4907A809F088F918B9012385F83C34E4
:101A800046E72B4907A809F07FF908B90223F5E7D3
:101A90006FF084043CE795F818321E071FD51F49E4
:101AA000244809F071F90646C8B907908DF820005E
:101AB000014607A8FFF72CFE041EFFF629AF3046AB
:101AC00003F068FC0446002853D1FFF78FFD4FF464
:101AD000FA6006F0F9F9012003F0A4FC18E795F884
:101AE00018329C072AD50D49134809F04DF90146D3
:101AF00020BB07908DF8200007A8FFF709FE041E01
:101B0000FFF606AF08F05AFD20B1032385F83C34F8
:101B1000A124FDE66FF08604FAE600BF108F0020D6
:101B2000DBD90208008D0020DBDA020867DC02083E
:101B300055DC0208F1DA0208E1DA020895F81832F9
:101B4000D80619D53B493C4809F01EF9014698B919
:101B500007908DF8200007A8FFF7DAFD041EFFF6B6
:101B6000D7AE08F034FD044618B934480AF05DFDDC
:101B7000CEE66FF08504CBE695F8183299060FD5BE
:101B80002C492F4809F000F9014648B907908DF813
:101B9000200007A8FFF7BCFD041EA8BFA224B7E6DB
:101BA00095F818325A060FD52249264809F0ECF864
:101BB000014648B907908DF8200007A8FFF7A8FD57
:101BC000041EA8BFA324A3E695F91832002B18DA47
:101BD00018491D4809F0D8F8064690B907908DF8C5
:101BE0002000014607A8FFF793FD041EFFF690AE04
:101BF000A220FFF7FBFC40F6B83006F065F930464E
:101C00006AE795F81932DB0702D46FF083047FE6A8
:101C100008490E4809F0B8F801460028F5D10790A8
:101C20008DF8200007A8FFF773FD041EA8BFA524A8
:101C30006EE600BF108F0020E2D90208489700200E
:101C400072DA0208D5DA0208EADA0208CADA020809
:101C500013B50E4C437994F83C249A4213D10023D7
:101C60008DF80730A4F83634D4F844344FF0FF31FF
:101C70000DF1070098479DF80730242BF4D1FFF7AA
:101C8000DFFDFFF7B3FC02B010BD00BFF48C0020F5
:101C90000D4A92E8030008B50C4B83E8030008F0F6
:101CA0008DFC044638B90A4807F049FA224609492A
:101CB000094806F013FC06F06DF906F051FA034CE2
:101CC000204606F04BFEFBE73C910020F48C002000
:101CD000EFD9020880841E004897002037B5002302
:101CE0008DF8073043685B6C044623B91E4807F043
:101CF00026FA03B030BD98470028F7D063685B6BC5
:101D000083B12046984768B163689B6923B101227B
:101D10000DF107012046984700220DF10701E06808
:101D200005F010FD63685B6A00258DF80750002BF5
:101D3000DFD0204698470028DBD02A460DF1070166
:101D4000206905F051FD636840B95B69002BD0D074
:101D500001220DF1070120469847CAE71B6A002BB4
:101D6000C7D020469847C4E7F6DA020810B5044603
:101D7000084605F061FB07C884E8070029B18B6CB1
:101D80001BB1224604492046984763689B6A0BB101
:101D900020469847002010BDDD1C020837B5124BC5
:101DA000124A134D0021044607F026FD114B009303
:101DB00000232A461946204607F01EFD0E4B0093CD
:101DC0002A4620460123002107F016FD0B4B019304
:101DD0000B4B0093204602230A4A002107F00CFD1A
:101DE000002003B030BD00BF72D6020837DB020806
:101DF0003FDB020846DB02084CDB020888D60208FB
:101E000060DB020856DB020808B513460A460146A5
:101E10000248FFF7CDF9002008BD00BF94910020D3
:101E200008B513460A4601460248FFF7C5FA0020E6
:101E300008BD00BF9491002010B5054B00241C7014
:101E400013460A4601460348FFF700F9204610BD35
:101E5000481600209491002010B5054B00241C70FA
:101E600013460A4601460348FFF77AF9204610BD9B
:101E7000481600209491002013460A460146014866
:101E8000FFF724BB9491002013460A4601460148FF
:101E9000FFF758BB9491002037B513460A4A0D4608
:101EA000117839B101462A460848FFF735F9002074
:101EB00003B030BD064B0193044B064A1B680093E8
:101EC000054B07F099FCF2E748160020949100209A
:101ED00088D6020867DB020872D602087FB5114C6B
:101EE000612105462046164606F0E8FC01463368A7
:101EF0000D4869B1019323680093CDE902100B4BA3
:101F00000B4A0021284607F077FC002004B070BD82
:101F1000CDE9013023680093064A044B284607F0B8
:101F20006BFCF2E79491002088D6020872D6020872
:101F300014DB02088AD602081FB5084B0393052359
:101F400002930B680193064B064A1B68009300211D
:101F5000054B07F051FC05B05DF804FB88D602087C
:101F60009491002014DB020872D6020837B513469C
:101F70000A4A0D46117839B101462A460848FFF74A
:101F800073FA002003B030BD064B0193044B064AA0
:101F90001B680093054B07F02FFCF2E74816002062
:101FA0009491002088D6020878DB020872D60208D5
:101FB0002DE9F04F8BB00025032980468A46144650
:101FC00009953F4F3F4E70D10A222946606808F0BC
:101FD00043FEA3680793042181466068ADF8205052
:101FE000ADF8225006F0A8FB079B0DF122018346B5
:101FF000184606F07AFB014650B10397022302937C
:1020000023680193336800932F4A304B00210BE083
:10201000BDF822305B450BD0CDE902A723680193C0
:1020200033680093284A294B404607F0E5FB38E027
:102030005FFA89F3012B11D02BB1022B12D00623AA
:1020400003970293EAE7224B08AA0821186806F0D2
:10205000D1FCC5B255B103970523D0E708AA0921E1
:102060001C4BF3E708AA0F211B4BEFE7BDF820003C
:10207000FEF760FF014609A808F067FE042109A8E1
:1020800036682468BDF8209006F056FBCDE901497A
:10209000CDE9030700960D4B104A2946404607F04C
:1020A000ABFB00200BB0BDE8F08F01230397029338
:1020B0001368019333680093034A044B2946B4E73D
:1020C00088D602089491002014DB020872D6020818
:1020D000BC010020B8010020C001002021DB020863
:1020E0002DE9F04F03298BB080468A461546434FB1
:1020F000434E77D1D2F8049099F80000FEF7E6FE3F
:10210000049099F80100FEF7E1FE834699F8020079
:10211000FEF7DCFE044699F80300FEF7D7FE4FF009
:102120000009AA680590042168680792ADF8269016
:1021300006F002FB079A06900DF12601104606F004
:10214000D4FA069B014650B10397022302932B68F1
:102150000193336800932B4A2B4B00210BE0BDF811
:1021600026209A420BD0CDE902A72B680193336851
:102170000093244A244B404607F03EFB2EE0049A8D
:10218000230103EB0B2303EB0233059A13449BB2A9
:1021900003F00F021B0A012B0FD02BB1022B0FD023
:1021A000062303970293E0E7184B0821186806F00E
:1021B0002AFC40B103970523C8E70921144BF5E732
:1021C0000F21144BF2E72B680193336800930297B9
:1021D0000D4B114A0021404607F00EFB00200BB0CA
:1021E000BDE8F08F012303970293136801933368CE
:1021F0000093044A044B0021BEE700BF88D60208C2
:102200009491002014DB020872D60208BC01002061
:10221000B8010020C00100208AD6020843685B6C28
:1022200013B50446002B38D09847002835D0636892
:102230005B6BFBB120469847E0B163689B6923B1B3
:1022400001220DF107012046984700220DF10701F8
:10225000184805F077FA9DF807300A2B164B1A78C4
:1022600006D112B100221A70144B01221A7001E03B
:10227000002AFAD063685B6A7BB12046984760B158
:1022800000220DF107010E4805F0AEFA38B10D4BF2
:10229000986843681B6A03B1984702B010BD636831
:1022A0005B69002BF9D001220DF107012046984708
:1022B000F3E700BF38980020491600204816002098
:1022C0006098002094910020F0B5144F85B00F2144
:1022D000054616463868012206F095FB0446C820DC
:1022E00005F0F2FD0F210022386806F08CFB211862
:1022F00049B231B131462846FFF71EFE002005B035
:10230000F0BD074B029333680193064B064A1B68E6
:1023100000932846054B07F06FFAEFE7C001002055
:1023200088D60208949100208AD6020872D6020844
:10233000F0B5184E85B008210546174630680022D2
:1023400006F061FB0446C82005F0BEFD012208210D
:102350003068114E06F057FB0444C82064B205F003
:10236000B3FD304606F070FA34B139462846FFF71F
:10237000E3FD002005B0F0BD084B02933B680193DC
:1023800033680093064A074B2146284607F034FA83
:10239000EFE700BFBC0100209491002088D602081E
:1023A0008AD6020872D60208F7B52A482A4C2B4D65
:1023B0002B4E05F041F80821206006F02DFB254842
:1023C00005F03AF80921286006F026FB254805F0BB
:1023D00033F80F21306006F01FFB00220F21306818
:1023E000214E06F010FB0022092128681F4D06F03F
:1023F0000AFB00220821206806F005FBC82005F032
:1024000063FD01220821206806F0FDFA184B0093B5
:10241000184A194B19491A4806F099F9134806F059
:1024200013FA4FF0FF31304605F0E6FD0022082197
:10243000206806F0E8FA0746C82005F045FD0122AD
:102440000821206806F0DFFAC742EAD1284606F0E4
:10245000FBF9E6E78BDB0208BC010020B801002095
:10246000C001002091DB0208A49700209491002075
:102470001D2202083898002060980020CDDC020858
:102480009C91002008B513460A4601460248FEF713
:1024900043FE002008BD00BFAC92002008B51346E3
:1024A0000A4601460248FEF783FE002008BD00BF31
:1024B000AC92002008B513460A4601460248FEF7D2
:1024C0007BFF002008BD00BFAC92002008B513467A
:1024D0000A4601460248FEF7B9FD002008BD00BFCC
:1024E000AC92002008B513460A4601460248FEF7A2
:1024F00037FE002008BD00BFAC92002013460A46FC
:1025000001460148FEF7E2BFAC92002013460A469E
:1025100001460148FFF716B8AC92002008B51346F3
:102520000A4601460248FEF79FFF002008BD00BF93
:10253000AC92002043685B6C13B5044643B39847E4
:1025400030B363685B6B83B12046984768B16368BA
:102550009B6923B101220DF1070120469847002213
:102560000DF10701104805F0EDF863685B6A7BB177
:102570002046984760B100220DF107010B4805F095
:1025800033F938B10A4B986843681B6A03B198471E
:1025900002B010BD63685B69002BF9D001220DF118
:1025A000070120469847F3E788980020B09800205C
:1025B000AC92002037B5094C094B009313460A46EC
:1025C00001462046FEF76AFD0546C82005F07CFC62
:1025D000204606F039F9E8B203B030BDAC920020D5
:1025E000D4DC020801292DE9FF4780468A461746B8
:1025F0001E4E1F4D2FD1DFF8889000221146D9F8CA
:10260000000006F012FA0446642005F05DFC00218B
:102610005246D9F8000006F008FA211849B23B6882
:1026200061B10522CDE901322B680093114A124BAA
:1026300003960021404607F0DFF808E0CDE90136B7
:102640002B6800930D4A0C4B404607F0D5F800204C
:1026500004B0BDE8F0870123039602931368019349
:102660002B680093034A044B0021E4E788D6020854
:10267000AC92002014DB020872D602088AD6020847
:10268000C401002001292DE9FF4780468A461746EC
:10269000214D224E35D1DFF894900022D9F8000068
:1026A00006F0C3F90446C82005F00EFC5246514618
:1026B000D9F8000006F0B9F90444C82005F004FC7C
:1026C00064B2284606F0C0F83B6864B10522CDE943
:1026D00001322B680093124A124B039600214046A8
:1026E00007F08AF809E0CDE901362B6800930E4A1D
:1026F0000C4B2146404607F07FF8002004B0BDE8AF
:10270000F087012303960293136801932B680093CB
:10271000034A044B0021E3E7AC92002088D602086C
:1027200014DB020872D602088AD60208C80100200B
:10273000F7B52748274C04F07FFE436820601D68EA
:1027400001231A460021A847002201212068224DBA
:1027500006F06BF9C82005F0B7FB0122114620688E
:1027600006F063F91A4804F067FE43682860002207
:102770001E6811460123B047012200212868174E28
:10278000174D06F052F9174B0093174A174B18498B
:10279000184805F0DCFF124806F056F84FF0FF31FC
:1027A000304605F029FC00220121206806F03DF9A1
:1027B0000746C82005F088FB01221146206806F074
:1027C00034F9C742EAD1284606F03EF8E6E700BFF2
:1027D000E3DC0208C8010020C40100207497002037
:1027E000AC9200203525020888980020B09800207F
:1027F000CCDD0208B49200202DE9F04F8BB0002709
:10280000032980468A46144609974A4E4A4D40F0AD
:10281000878010223946606808F01EFA042183463A
:102820006068D4F80890ADF82070ADF8227005F01B
:1028300083FF0DF122010790484605F056FF079BE4
:10284000814660B102230396029323683B4ACDE997
:1028500000533B4B3946404606F0CEFF3FE0BDF803
:1028600022209A4208D0CDE902A62368334ACDE956
:1028700000534946324BEEE75FFA8BFB584600F0B7
:102880004DFB0146002842D0584600F047FB08A9FE
:102890004278584600F054FB8246002833D158460F
:1028A00000F03CFB4378012B1DD1BDF82000FEF762
:1028B00041FB014609A808F048FA042109A8246848
:1028C000BDF8207005F038FFCDE90147CDE90306DA
:1028D00000951B4B1B4A0021404606F08DFF00204F
:1028E0000BB0BDE8F08F584600F018FB4378022B80
:1028F000DBD00723039602932368104ACDE90053E7
:1029000051460F4BA7E7052303960293ADE7062335
:10291000039602932368094ACDE90053084B9AE7CE
:102920000123039602931368044ACDE90053394604
:10293000034B91E788D602089CDD020814DB0208ED
:1029400072D6020821DB02082DE9F04F032989B075
:1029500080468A461546434F434E79D1D2F80490BB
:1029600099F80000FEF7B2FA834699F80100FEF7E5
:10297000ADFA040299F80200FEF7A8FA04EB0B3452
:1029800024B204EB001499F80300FEF79FFAA4B2F6
:102990000444A4B204F00F038DF81D300421AB6889
:1029A000686805934FF00009ADF81E9005F0C4FE6D
:1029B000059B0DF11E018346184605F096FE014663
:1029C000C0B1022302932B68284A0397CDE9006324
:1029D000274B4946404606F00FFF052302932B681C
:1029E000224A0397CDE90063214B0021404606F0BF
:1029F00003FF29E0BDF81E305B4507D02B681B4A5A
:102A0000CDE90063CDE902A7194BE3E7240A20468C
:102A100000F084FA0028E0D0204600F07FFA037925
:102A2000002BDAD10DF11D010122204600F0B6FA8B
:102A300001460028D1D12B680297CDE900630D4AE9
:102A40000B4B404606F0D8FE002009B0BDE8F08FE1
:102A50000123039702931368044ACDE90063002120
:102A6000034BC4E788D602089CDD020814DB020889
:102A700072D602088AD6020870B5CAB004AC304DCE
:102A800006464FF48C720021204608F0E9F92946E9
:102A90002C4B0022204603F0BDFF204608F06DF9C4
:102AA0002946294B0122204403F0B4FF204608F0B8
:102AB00064F92946254B0222204403F0ABFF20464F
:102AC00008F05BF92946224B0322204403F0A2FFC1
:102AD000204608F052F929461E4B0422204403F0F8
:102AE00099FF204608F049F929461B4B052220444E
:102AF00003F090FF204608F040F92946174B0622C4
:102B0000204403F087FF204608F037F9144B0722D2
:102B10002946204403F07EFF204608F02EF90146A6
:102B2000204605F009FE0F4B0094CDE901030E4A43
:102B30000E4B0021304606F05FFE4AB070BD00BF6C
:102B4000D8DD0208D3DD02082EDE0208E1DD02082E
:102B5000F1DD0208FFDD020808DE02080FDE0208D0
:102B600014DE020888D602081BDE020872D60208AC
:102B700001291FB505D1FFF77FFF002005B05DF8E3
:102B800004FB074B03930123029313680193054B46
:102B90000093054A054B002106F02EFEEDE700BF2D
:102BA00088D602089CDD020814DB020872D60208EF
:102BB00007B500230193074B01AA18680A2105F005
:102BC00051FF012201A9052000F0E8F903B05DF8EA
:102BD00004FB00BFCC01002007B500230193074B85
:102BE00001AA1868082105F03DFF012201A904206F
:102BF00000F0D4F903B05DF804FB00BFD001002061
:102C000007B500230193074B01AA18680B2105F0B3
:102C100029FF012201A9032000F0C0F903B05DF8EB
:102C200004FB00BFE001002007B500230193074B20
:102C300001AA1868082105F015FF012201A9022048
:102C400000F0ACF903B05DF804FB00BFD401002034
:102C500007B500230193074B01AA1868092105F065
:102C600001FF012201A9104600F098F903B05DF8B8
:102C700004FB00BFDC010020054B10B51868436859
:102C80000D225C680B780021A047002010BD00BF1A
:102C9000E40100208FB58948894C00F0BBF98948D0
:102CA00004F0CAFB4FF493720C21206005F0E3FEA0
:102CB00060B98549854B4B6020684FF480538B6029
:102CC00005F0BCFE0C21206805F0C3FE7D48804C59
:102CD00004F0B2FB4FF4B9720921206005F0CBFE7D
:102CE00060B97C497C4B4B6020684FF400738B606B
:102CF00005F0A4FE0921206805F0ABFE0022114674
:102D00001046FFF7A5FF6F48744C04F095FB4FF495
:102D1000B9720821206005F0AEFE60B97049714BB0
:102D20004B6020684FF480738B6005F087FE0821AC
:102D3000206805F08EFE002211461046FFF774FF52
:102D400069486A4C04F078FB4FF4B9720B2120609B
:102D500005F091FE60B96649664B4B6020684FF400
:102D600000638B6005F06AFE0B21206805F071FEA0
:102D7000002211461046FFF743FF5F485F4C04F006
:102D80005BFB00220821206005F075FE60B95C49FC
:102D90005C4B4B6020684FF480738B6005F04EFEF7
:102DA0000821206805F055FE002211461046FFF765
:102DB00013FF5148544D04F03FFB4FF4B9720A2100
:102DC000286005F058FE60B95049514B4B602868A7
:102DD0004FF480638B6005F031FE0A21286805F00E
:102DE00038FE002211461046FFF7E2FE354804F097
:102DF00023FB484B002501220D21186005F03BFE06
:102E000000F0C2F9012203A928468DF80C5000F009
:102E1000C5F84FF47A7005F057F80122284603A947
:102E20008DF80C2000F0BAF83B4D4FF47A764FF451
:102E30007A7005F049F800272846CDE9017700F0BF
:102E4000B1FA4FF47A71284605F052FE284605F093
:102E50009FFE01900A2005F037F84FF47A7128465A
:102E600005F046FE284605F093FE0290284605F040
:102E700021FE019A40F24B6301A95343062002222E
:102E8000B3FBF6F3019300F089F8029A41F245632F
:102E900002A9534307200222B3FBF6F3029300F08A
:102EA0007DF803AA08212068039705F0DBFD0122C5
:102EB00003A9042000F072F8B9E700BFC493002012
:102EC000D801002091DB02080C0200204D8A020884
:102ED000DC01002018020020512C0208D40100203F
:102EE00000020020292C02088BDB0208E0010020F0
:102EF00024020020012C0208E3DC0208D00100209B
:102F0000F4010020D92B0208CC010020E8010020A8
:102F1000B12B0208E4010020B4020020064B1B780C
:102F2000834281BF054B1B6800EB800003EB8000F0
:102F300098BF0020704700BF5C16002030020020C0
:102F400070B5134B1B7883420E4618D9114B1D6880
:102F500000EB800005EB80056B78934212D1642171
:102F60000D4805F049F8044678B96A78A9683046F2
:102F700007F04CFF084805F013F8204670BD6FF0CD
:102F80004D04FAE76FF01504F7E76FF00F04F4E76C
:102F90005C16002030020020BC9700202DE9F04193
:102FA000194B1B78834206460F4623D9174B1B68E3
:102FB00000EB800403EB840494F8018090451CD15D
:102FC0006421134805F018F80546C8B96278A0686E
:102FD000394607F01BFFE3780D480133E37004F036
:102FE000DFFF23691BB142463946304698472846E1
:102FF000BDE8F0816FF04D05F9E76FF01505F6E7D4
:103000006FF00F05F3E700BF5C16002030020020D0
:10301000BC9700200D49002370B50B7010B96FF0FC
:10302000150070BD0A4A1D4610601426DCB206FB6E
:1030300004020133926832B9002DF0D00C70002CDC
:10304000EDD01046EDE70125F0E700BF5C1600204B
:103050003002002013B500230A4C019304230DEB2A
:103060000302072104F1540007F06DFA002804DD83
:10307000019B2360022002B010BD034806F05FF8F8
:10308000F8E700BF3402002016DF020830B5124C0A
:10309000124885B04FF44043636504F0CDF901AAAE
:1030A000616D08F0EAFB054628B10D4806F047F8C7
:1030B000284605B030BD029BA4F8603007490323C1
:1030C00004F15400A4F8623002F026F80546002806
:1030D000EED00448EAE700BF34020020E0DE020838
:1030E000EBDE020803DF02082DE9F341224ED6F899
:1030F000008004461546B8F1000F1AD1D2E901014B
:1031000005F0C2FC074630B11C4A03464146204642
:1031100006F072FB0DE068680A22694607F026FD9A
:10312000009B01901D7845B1154A3946204606F0AE
:1031300063FB002002B0BDE8F08104230DEB030225
:10314000072106F1540007F0D4F8031E02DA0B4AF7
:103150002946DCE7042BFAD1019B0A4A3360294651
:10316000204606F049FB4FF47A7004F0ADFE0120D2
:1031700002F058F9DDE700BF34020020B6DE020895
:10318000BEDE0208DBDE02087FB5102200216846A1
:1031900007F066FE154C164A4FF44033C4E900238D
:1031A00001250023134AA360022620462561A5615C
:1031B0002362E362A262E360E6612363636100F07D
:1031C0004DF880B90C23CDE9003569460723204628
:1031D000029300F047F930B90D2369462046CDE946
:1031E000003600F03FF904B070BD00BFB40200200B
:1031F000002001400100000F10B5044688B01422E1
:10320000002103A807F02CFE2268124B9A421ED11F
:1032100003F58C33002101915A6C0F4842F48072FF
:103220005A645A6C02F480720192019A02911A6BEC
:1032300042F004021A631B6B03F004030293029B27
:103240000C22032303A9CDE9032300F09DF908B064
:1032500010BD00BF002001400008024010B5044628
:10326000002800F09980036C23B9436480F83C3057
:10327000FFF7C2FF236CDB0600F18C80236C23F484
:10328000885323F0020343F002032364434B5A683C
:1032900022F440325A605A6861680A435A602368CF
:1032A00021695A6822F480725A605A6842EA0122FF
:1032B0005A605A68A16822F040725A605A680A43FC
:1032C0005A609A68E16822F400629A609A680A4338
:1032D0009A603349A26A8A4250D0996821F070619D
:1032E000996099680A439A609A68E16A22F04052AC
:1032F0009A609A680A439A609A68A16922F0020269
:103300009A609A6842EA41029A60226A002A3DD095
:103310005A68616A42F400625A605A6822F4604254
:103320005A605A68013942EA41325A60DA6AE16900
:1033300022F47002DA62DA6A013942EA0152DA6290
:103340009A68216B22F400729A609A6842EA4122DC
:103350009A609A68616922F480629A609A68002093
:1033600042EA81229A606064236C23F0030343F0F5
:1033700001032364002384F83C3010BD9A6822F0D6
:1033800070629A609A6822F04052B4E75A6822F458
:103390000062CAE70120EDE70120EEE700230140CB
:1033A0000100000F82B00023019390F83C30012B04
:1033B0004ED0012380F83C3003689A68D10705D5C8
:1033C0009A68D20714D4002002B070479A68214945
:1033D00042F001029A60204A1268B2FBF1F202EB5D
:1033E00042020192019A002AEAD0019A013AF8E7D2
:1033F000026C22F4E06222F0010242F48072026464
:103400005A68510541BF026C22F4405242F4805286
:103410000264026C12F480521CBF426C22F006025D
:103420004264002280F83C206FF022021A600B4AAE
:103430005268D20608D1986810F04050C3D19A68FB
:1034400042F080429A60BFE7054A9342BBD1F2E75F
:103450000220B9E740420F007C9400200023014085
:1034600000200140F7B50023019390F83C30012B78
:103470007AD00D688E680123092D80F83C30ACB2FB
:10348000036829D904EB4402DF681E3A4FF0070CA9
:103490000CFA02FC27EA0C07DF60DF6806FA02F28A
:1034A0003A43DA604968062901EB810224D8596B56
:1034B000053A1F26964021EA06015963596B04FA22
:1034C00002F20A435A632C4A934231D0002380F817
:1034D0003C30184603B0F0BD1F6905EB45024FF0C4
:1034E000070C0CFA02FC27EA0C071F611F6906FA99
:1034F00002F23A431A61D5E70C294FF01F010BD8AD
:103500001E6B233A914026EA01011963196B04FAF4
:1035100002F20A431A63D6E7DE6A413A914026EA8C
:103520000101D962D96A04FA02F20A43DA62CAE7EF
:10353000122D1BD1114A536843F4800353600F4A84
:103540005368122D43F400035360BFD10C4B0D4A56
:103550001B68B3FBF2F20A2353430193019B002B38
:10356000B4D0019B013BF8E70220B3E7A5F11103BA
:10357000012BABD8E3E700BF00200140002301404E
:103580007C94002040420F002DE9F04F85B00B687D
:10359000DFF8A081654ADFF8A091019300234FF086
:1035A000010C019C0CFA03FC04EA0C06B44540F043
:1035B000AA804C6824F01007022F16D14FEAD30AD4
:1035C00000EB8A0A03F0070BDAF820504FEA8B0B66
:1035D0004FF00F0E0EFA0BFE25EA0E0E0D6905FADE
:1035E0000BF545EA0E05CAF820504FEA430A0325B9
:1035F000D0F800B005FA0AF5ED4304F0030E05EA31
:103600000B0B0EFA0AFE013F4EEA0B0E012FC0F81B
:1036100000E011D8876807EA050BCF6807FA0AFEB1
:103620004EEA0B078760476827EA0C0CC4F30017C3
:103630009F4047EA0C074760C7683D408F6807FA1C
:103640000AF73D43C560E5005DD54FF0000BCDF8AE
:103650000CB0D8F84470364D47F48047C8F8447031
:10366000D8F8447007F480470397039F23F00307BB
:1036700007F1804707F59C3703F0030ED7F808A041
:103680004FEA8E0E4FF00F0C0CFA0EFCA8422AEAFD
:103690000C0C3FD005F58065A8423DD005F580654E
:1036A000A8423BD005F58065A84239D005F5806574
:1036B000A84237D0484537D005F50065A8420CBF71
:1036C0000625072505FA0EF545EA0C05BD601568C7
:1036D000F74314F4803F0CBF3D40354315605568F7
:1036E00014F4003F0CBF3D4035435560956814F419
:1036F000801F0CBF3D4035439560D568A40254BF80
:103700003D403543D5600133102B7FF448AF05B001
:10371000BDE8F08F5D46D5E70125D3E70225D1E767
:103720000325CFE70425CDE70525CBE7003C014085
:1037300000000240003802400014024010B5094C5D
:103740000A44914200D110BD11F8013B43401809D1
:10375000205C80EA0310C3B21809205C80EA0310E1
:10376000C0B2EEE75EDF02080B6801330B60014B6D
:103770001B681847789400202DE9F04F85B09B46D0
:103780000E9CDFF890A0012CB8BF0124012B0CBFC8
:103790003023202315468046894601940293012652
:1037A0000A2700220AF101040AB9AA451FD2B5FB73
:1037B000F4F049463030C04701360122013F012F65
:1037C000B5FBF4F14FF00A0304FB1155BAFBF3FA11
:1037D000E8D1494605F13000C047BBF1030F03D1E2
:1037E000019B9C1B002C0FDC05B0BDE8F08F019BFA
:1037F000BB42E3DBBBF1020FE0D8494602980392DB
:103800000136C047039AD9E749462020C047013C0A
:10381000E8E700BFFFC99A3B014B1860704700BF43
:103820007894002007B50023019302460B46034815
:1038300001A905F033FB03B05DF804FB693702080A
:103840000CB430B585B008ABCDE9010153F8042BB9
:1038500000930446002501A90648039505F01EFBC8
:10386000DDE902309842B8BF255405B0BDE83040CC
:1038700002B07047778E02084FF01003EFF311810A
:1038800083F31188BFF36F8F064B4FF0FF329A62BC
:10389000DA6281F31188BFF36F8F034B034A1A601A
:1038A0000020704700ED00E07C9400200024F4002C
:1038B000024A136823F002031360704710E000E02F
:1038C000024A136843F002031360704710E000E0FF
:1038D000064A1369012923F00403136101D130BFA3
:1038E000704740BF20BF20BF704700BF00ED00E021
:1038F000054B1A681B6802F0007203F00063134363
:103900000CBF01200020704700380240264B1A6887
:1039100002F44042B2F5404F1A4632D1234B98424E
:1039200031D8234B984201D9022304E0214B98421D
:1039300094BF00230123126802F44042B2F5004F05
:1039400005D11B4A904220D9002B08BF0223164AFA
:10395000126802F44042B2F5804F05D1144A9042F9
:103960001AD9002B08BF022313490A6822F00F025C
:103970001A430A60086800F00F00C31A5842584101
:1039800070470023D7E70323D5E70A4A9042DED9E0
:10399000002B08BF0123DAE7064A9042E4D9002B46
:1039A00008BF0123E0E700BF00700040804A5D05CA
:1039B0000090D00380C3C901003C02400B68224A3A
:1039C000C3F3031370B5214DD45C2B6820FA04F4C3
:1039D000A3420E4627D31E4B1A6842F080721A602B
:1039E0001A689201FCD59A68316822F0F0020A4305
:1039F0009A609A6822F0030242F002029A60144B25
:103A00009A6802F00C02082AFAD19A68716822F4C6
:103A1000E0520A439A609A68B16822F460420A430D
:103A20009A60012005E020461CB1FFF76FFF0128D6
:103A3000D1D02B68A34203D9204624B1FFF766FFFB
:103A4000012808BF2C6070BD82DF02087C94002032
:103A5000003802402DE9F04104460D4690461946D3
:103A6000FFF746FF012838D1D8F80060D8F8047075
:103A7000D8F8083006F03F00B4FBF0F4C7F30800B4
:103A80004443180C01304000B4FBF0F0144C2268A1
:103A900092030FD42268012D0CBF42F4802222F43D
:103AA00080222260226842F4803222600C4C22681C
:103AB0009203FCD50A4C0B4A65682A4042EA8712F9
:103AC000324342F480026260626822F440321A4358
:103AD0006260BDE8F041FFF771BF0020BDE8F081F2
:103AE000003802400080BFFF30B50C4D0C4987B054
:103AF00000240E23CDE902434FF44072094BCDE977
:103B00000444CDE90044284604F006FB2846064953
:103B100008F0E5FC204607B030BD00BF2C030020B4
:103B200068380020753E020892DF020838B500F0C0
:103B3000FDF91348134C05F0C1FB13491348042346
:103B4000282208F0EAFA124B124A1A604FF47A70EF
:103B500000F0E2FB1048114B1B1ADB080021043077
:103B6000994200D138BD10F83120256802F00702D3
:103B700025F007052A4344F8042B0131F0E700BF84
:103B800008030020709600209059002010030020A8
:103B900080940020D992020840CC020870CC020820
:103BA000F8B50F4BBFF35B8F002553E8007F43E868
:103BB0000052002AF9D1BFF35B8F0A4C0A4E361B24
:103BC0003611B54200DBF8BD63685B792BB1236821
:103BD000DB6813B139462046984701351034F0E7C9
:103BE0000003002070CC020880CC02082DE9F843C5
:103BF0002C4B1B78054603B960B34FF01003EFF36D
:103C0000118483F31188BFF36F8F274805F05CFBA5
:103C1000064684F31188BFF36F8F78B1BFF35B8FD3
:103C2000224B53E8002F013A43E800210029F8D144
:103C3000BFF35B8F8DB1304605F0CFFB25B91C4B30
:103C40001B680BB1FFF7ACFF174805F03BFB051CE9
:103C500018BF01252846BDE8F883164C164FDFF83B
:103C60005C903F1B3F11A846B845E4DA63685A7977
:103C70009AB170891B79B17A800903EB430259F834
:103C80002030D34001F0070103F00703994204D824
:103C9000236831461B682046984708F10108103414
:103CA000E2E700BF5D16002008030020FC020020B0
:103CB0000003002070CC020880CC0208709600201F
:103CC000044A054B9B1AB1EBD30F34BF52F83100B5
:103CD0000020704740CC020870CC02082DE9F04764
:103CE000894616469846B8B9214B224FFF1A3F1114
:103CF000044605469A46BC4202DB2846BDE8F087EA
:103D00000AEB0410434632464946FFF7E7FF854277
:103D100038BF05460134EEE7174B184903EBC203E1
:103D20001D7943681A79072302EB420203FA02F075
:103D3000454551F8263028BF454623EA000305F0E3
:103D4000070000FA02F213430020032223FA02F4D0
:103D500004F00704A04202F1030238BF20461E2AE5
:103D6000F4D123F00703034341F82630C5E700BF31
:103D700070CC020880CC020840CC0208709600206B
:103D8000114BC31A2DE9F0411B11174642680F4C25
:103D9000013313710E4BE41A05460E46E4084FF04A
:103DA0000008A04507D16A68012316605371094ACB
:103DB0001370BDE8F08142463B4600212846FFF7DC
:103DC0008DFF08F10108ECE770CC020870CC020806
:103DD00040CC02085D16002070B5114BBFF35B8F1D
:103DE00053E8005F6A1C43E800210029F8D1BFF3C3
:103DF0005B8F2DB90B4C0C4E361B3611B54200DBD8
:103E000070BD237B43B123685B6903B198470022EF
:103E100011462046FFF7B4FF01351034EEE700BF2E
:103E20000403002070CC020880CC0208F8B50E4FC5
:103E30003D7875B90D4C0E4EFFF7CEFF361B36118F
:103E4000B54207DB0020FFF7D1FE0028FAD101239D
:103E50003B70F8BD63685B791BB1236820461B6922
:103E6000984701351034EBE75E16002070CC02084D
:103E700080CC020808B5FFF7AFFF04F08BF8094AC1
:103E8000106028B1084B1B68092B01DD04F05CF8B9
:103E90000020FFF7ABFE0028FAD14FF47A7004F04F
:103EA00013F8F5E798030020FC020020436870B582
:103EB00000245C71074D084BED1A0646ED08AC4234
:103EC00000D170BD0023224619463046FFF706FF99
:103ED0000134F4E770CC020840CC0208054B98424C
:103EE00005D3783398428CBF002001207047002012
:103EF000704700BF9459002007B504380190BFF304
:103F00005B8F50E8003F5A1E40E800210029F8D19D
:103F1000BFF35B8F012B03D101A9034803F0A4FB7E
:103F200003B05DF804FB00BF1003002020231A46F5
:103F30000149024808F0F1B8305A00209C030020E3
:103F40007FB5047A457A019014F001044FEA151503
:103F50000ED0019B1A7A920704D55B69104C03932B
:103F6000039BB3B901A90E4803F07EFB04B070BDFA
:103F7000002DEED0A5420198EBD9214605F010FAAC
:103F80000646FFF7ABFF10B13046FFF7B5FF01342F
:103F9000F0E71D6803A9204603F066FB0395DFE701
:103FA0009C0300200EB403B503AB014653F8042B69
:103FB0000448019304F072FF002002B05DF804EBA6
:103FC00003B07047019702082DE9F04F85B011F05A
:103FD0000204064690469DF8387001F0010901F090
:103FE000080507D011F0440F37D11A463249FFF7C0
:103FF000D9FF0446B9F1000F0AD0304B304953F8CD
:104000002720304B3046002A08BF1A46FFF7CAFF68
:104010003DB12D4B2D4953F827203046FFF7C2FF05
:104020000546B8F1000F44D0012303FA07F7284BE7
:1040300017F0100F274F18BF1F46BDF840109DF80E
:104040003C00FFF73DFE394602463046FFF7AAFF27
:104050002844204405B0BDE8F08F1F4A116831B3F1
:104060001E4A4FF4616E1468B3FBF4F34FF47A7C8C
:10407000B3FBF1F4B4FBFEF20EFB124E01FB143461
:104080000CFB04F44FF03C0AB4FBF1FB01FB1B44B6
:10409000BEFBFAF30CFB04F4B4FBF1F1CDE901B182
:1040A0000AFB13E100910E49FFF77CFFA1E70846E8
:1040B0009FE7084FC1E700BFD1DF020894D0020894
:1040C0005DDB0208C3DF0208A8D00208F6DF0208A1
:1040D000CDDF0208C8DF0208B8030020BC030020BF
:1040E000DADF02082DE9F8439846089B1746DA06FE
:1040F00004460E4605D49B064CBF21492149FFF7D3
:1041000051FFDFF888900025454528DBDFF88080E7
:10411000DFF880900025AF4227D9725D49462046DE
:10412000FFF740FF0135082DF5D11749DFF85C8016
:10413000DFF864902046FFF735FF0025AF4219D91C
:10414000725DA2F120035F2B28BF2E224946204634
:10415000FFF728FF0135082DF0D1BDE8F883494667
:104160002046FFF71FFF0135CEE741462046FFF707
:1041700019FFD7E741462046FFF714FFEAE700BFE3
:104180008AE0020826D90208A4DF0208A2DF02089A
:10419000A0DF02089ADF0208ABE0020838B50C463F
:1041A000E107054603D5084A0849FFF7FBFEE2068A
:1041B00008D4A30628464CBF05490649BDE8384047
:1041C000FFF7F0BE38BD00BFC3DF02085DDB0208A9
:1041D0008AE0020826D902082DE9F0478B7A13F00D
:1041E0000704174688B005460E460A7A1CD049894E
:1041F000C3F3C2038909D2430291CDE9004302F01F
:104200000102F3683946FFF7DFFE8146337ADA07A9
:104210000CD42946304605F009F94CB322463946FC
:104220002846FFF7BBFF23E0A146EFE734BB274654
:10423000EB68069306AA3B46A968304605F0E2F80B
:10424000069A6B681A603AB1AB68134413F8014CD4
:10425000A4F10A035C425C41284605F044FA069B3F
:104260001F44002BE4D11CB114492846FFF79AFEE5
:10427000284605F038FA08B0BDE8F087304605F06A
:10428000BFF80F4902462846FFF78CFE4FF00008A2
:104290004FF0080A05AA434606A93046CDF814A0F7
:1042A00005F0B0F8059A002AB8D04B46009706A949
:1042B0002846FFF717FF059B9844EBE7CADD020885
:1042C0005DDB020873B5D0E900435D680F4A42F236
:1042D0000F738B4228BF0B466846052102F082FB14
:1042E0002B46064604222046094905F092F82B4643
:1042F00032466946204605F08CF82B4617220549C0
:10430000204605F086F802B070BD00BFA0E00208AC
:10431000BEDF0208A6DF0208084A10B50123084CD8
:1043200013600021A04204D801B11360054B18604E
:1043300010BD40085B000121F4E700BFBC03002072
:1043400040420F00B80300202DE9F04796B0044624
:104350000023029305F045FC204605F004FC18B943
:104360004E49606905F00FFAA06814220021083058
:1043700006F076FD204605F09DFBA2680C23343242
:104380000DEB030009A905F0D0FA039A034632B3F6
:1043900000BB0DF124080546074682460DF11009C1
:1043A0000026039B9F4238D202ABCDF800903246E4
:1043B0003946504600F080FC731C01D0029B8BB93B
:1043C0005FBB374B0093374A099B0221204605F01B
:1043D00074FC04E0344A0221204605F06EFC6FF0C4
:1043E000070535E01968D8F8000006F0CDFC013665
:1043F0000028D6D1DDF808C0DCF80C303BB16646A9
:104400000FCEA56808350FC533682B603D460137D0
:10441000DCF808A008F10408C2E7A068039E43691D
:10442000761B2BB9214A0221204605F046FCD6E72F
:10443000037E8BB19E42427E02D313449E420BD92F
:1044400083681B4A0221204605F037FC6FF01505F2
:10445000284616B0BDE8F08700F5D96003F092FA5F
:10446000A368B3F8342642F08002A3F8342609AAE0
:1044700002EB850231465B69204698470546A068F5
:10448000B0F834366FF3C713A0F834364FF0FF316D
:1044900000F5D96003F006FADAE700BF8AE0020807
:1044A00036E0020830E002081CE002084AE0020898
:1044B00068E002082DE9F04F8368BFF35B8FADB071
:1044C000044603F2346353E8002F42F0080243E845
:1044D00000210029F7D1BFF35B8FA3681B79022B62
:1044E00040F0D58200230C936068036801221D69A7
:1044F0000DF12F010CABA8470C9B002B00F0C782DD
:104500009DF82F100B06EFD4A0684379022B00F220
:104510004A82DFE813F0030042024A020D291BD051
:104520000A2919D0B0F834366FF30F23A0F83436C7
:10453000092952D037D80029D6D0082900F01B828B
:10454000A1F120035E2B00F22582B0F8343643F04F
:104550004003A0F8343631E1D0F8343613F47F4FFD
:1045600005D0D0F83436C3F307239942E0D1B0F830
:10457000343661F30F23A0F83436C38D7BB99449E8
:10458000606905F000F9A36802221A71002283F81D
:1045900034201A86DA85204600F070FCA4E7204615
:1045A000FFF7D2FEEFE71B2914D07F29C8D1D0F83E
:1045B00034365D0798D5B0F8343643F04003A0F8A0
:1045C0003436D0F83436990600F1E081204605F003
:1045D000B7FB89E70123437186E7D0F83436C3F38C
:1045E00080030393002B3FF47FAFB0F83436C28DC5
:1045F00043F04003A0F8343640F2FF139A423FF4F0
:1046000073AF028E00F1340100F50D7006F0FEFB71
:10461000A268138E1344002183F8341202F50D7240
:104620000C231FA90DA805F080F9A3681A8E134466
:1046300093F83330202B6FD0093B042B8CBF002321
:1046400001230D9E002E00F03582002B66D1012E35
:1046500000F02F8206F1FF3800261FAD37460DF11E
:104660004009002355F804BB1A931A461AABCDF83B
:1046700000903146384602F1010A00F01DFB1A9BFA
:10468000002B3FF431AF1968584606F07DFB1A9BAA
:10469000002845D19A46002B3FF426AF0136B0459D
:1046A0009F68DED12CAB03EB86034FF0000B53F871
:1046B000348C404605F061F8D9460590CDF810B02D
:1046C0005D465F46BAF1000F2ED0DAF808001AF105
:1046D000000318BF012302931AAB00932A4615ABBF
:1046E000029900F0E9FA159B03B3059A1868414650
:1046F00006F056FB70B9159B186806F03EFB049B4C
:10470000834238BF03469BB204930BF1010B0FB9F0
:10471000039FA9460135D5E7012392E7B0469BE701
:104720005246002BA2D1DFE65046D0E7BBF1010F85
:1047300050D12CAB03EB860353F8340C05F01DF875
:104740000546BAF1000F01D0DAF808A0A368029973
:10475000083300934A461AAB504600F0ADFA1A9B54
:10476000186805F00AF8854207D01A9B1968421BA1
:1047700092B22944204605F0E1FAA3681A8E1A4441
:1047800092F83420202A1DD0093A042A1AD9D3F8E5
:104790003426D70711D5B3F834266FF30002A3F8F7
:1047A00034262021204600F037FBA268B2F83436C8
:1047B00043F00103A2F8343696E62021204600F0AB
:1047C0002BFB91E60121204605F0E1F98CE600BFC4
:1047D0008AE0020805937FF687AE2CAB03EB8602D6
:1047E00052F8343C0393184604F0C7FF059BA268B7
:1047F0000890CDE9059B9385BAF1000F71D0DAF8E6
:104800000800A368059A0299083300931AAB00F0D8
:1048100053FA059B01330593039B002B63D11A9B2D
:104820001F68002F6AD1A3689F85069B013B0693F2
:10483000E2D1A149606904F0A6FF204600F01EFB0A
:104840002CAB03EB860309F1010753F8340C04F099
:1048500094FF0646BAF1000F00F08780DAF80800EE
:10486000029915AB00934A460EAB00F025FA0E9B59
:10487000D3F800804FF6FF75BAF1000F79D0DAF85F
:10488000080002991AAB00933A460FAB00F014FAF5
:104890000F9B07F10109CBB10E9A1868116800222D
:1048A0008F5C835CBB4205D123B101324FF6FF73AD
:1048B0009A42F5D10EB1B24259DB95420BF1FF3B62
:1048C000A8BF1546BBF1010FADB250D1002D3FF48A
:1048D0000BAEAA1B92B208EB0601204605F02EFA99
:1048E00002E650468DE71A9B1868002897D0089A70
:1048F000039906F055FA002891D07DE76F4804F03F
:104900003CFF049B1844A3681FFA80F86B48DD8CB9
:1049100004F033FF0990384604F02FFFA268A8EB9B
:10492000000083B20793938D591C9185099AAD1AA3
:1049300095FBF8F81FFA88F8B3FBF8F508FB153378
:104940009BB25BB900975D4B5D4A0721204605F09D
:10495000B4F90799204600F0F3F966E73B46594A57
:104960000721204605F0A9F9F3E7504678E74F46BE
:1049700082E7504685E7D0F834365E077FF5B4AD60
:10498000B0F8343643F04003A0F83436204605F042
:10499000F2F9A9E5D0F83436A6E55B2901D1022366
:1049A00019E6D0F83436002315E600234371D0F819
:1049B00034365A077FF598AD31391B293FF694AD4F
:1049C00001A353F821F000BF554A0208614A0208CA
:1049D0007F4A0208494A0208E9440208E9440208F9
:1049E000E9440208E9440208E9440208E9440208EB
:1049F000E9440208E9440208E9440208E9440208DB
:104A0000E9440208E9440208E9440208E9440208CA
:104A1000394A0208414A0208E94402084D4A02089C
:104A2000E9440208594A0208E9440208E944020834
:104A3000E9440208654A0208204605F0E1F853E51A
:104A4000204605F0D5F84FE503234371204605F0D5
:104A5000C8F849E503234371204605F0BCF843E557
:104A600003234371D0F83436B0F8342603F0010341
:104A700083F0010363F30002A0F8342634E5032336
:104A80004371D0F834365B077FF52EAD9EE5A36801
:104A9000BFF35B8F03F2346353E8002F22F0080268
:104AA00043E800210029F7D1BFF35B8F2DB0BDE8AB
:104AB000F08F1E46B246F5E58AE00208A1DF020843
:104AC00083E002085DDB020870B504464068294AAD
:104AD0001E46036886B01D682346A8470546002881
:104AE00045D101464FF4DC62A06806F0B9F9A06830
:104AF0002368036000F5D96007F066FBA368B3F88C
:104B00003426186842F01002A3F83426B3F834268D
:104B100065F38202A3F83426B3F8342642F020026B
:104B2000A3F8342601221A71134A5A6204F025FEB2
:104B3000A36883F82800A368B3F8342665F341021C
:104B4000A3F834260E2303930A9B0094CDE9016356
:104B5000D4E90A01094BCDE904554FF4006203F092
:104B6000DBFAA368616AC3F8DC0607F0B8FC2846E4
:104B700006B070BDA197020818005000B94B02089A
:104B800038B583681B79012B054610D10949406966
:104B900004F0F9FDAB680024022228461A7183F85C
:104BA00034401C86DC8500F069F9204638BD6FF082
:104BB0002200FBE789E002082DE9F041044688461F
:104BC00017464FF4CF664FF4C765A068284407F036
:104BD000E5FDA0680022431901213044103503F09F
:104BE00091FCB5F5CF6F06F11406EED1606803684D
:104BF00000219B689847002840D1B8F1000F04D0ED
:104C00003A462146E06905F0FDF92046FFF7B8FF76
:104C1000A0BB1B4F1B4EA06803214FF0FF3200F5D5
:104C2000CF6003F083FC0546A0684FF0FF3100F52C
:104C3000D96002F037FE3DB12B462046124A0221D0
:104C4000BDE8F04105F039B8606803685B6903B1FD
:104C500098473A462046022104F063FD324620463A
:104C6000002104F05EFD2046084A012104F059FDB0
:104C7000A06800F5D96002F085FECCE7BDE8F081C0
:104C80004D970208B54402088CE00208B597020867
:104C900010B5044613460A460146064801F0F2FAEA
:104CA00023691B7923B12046BDE8104004F0D5BD2F
:104CB00010BD00BF7398020870B5049C1D4661B911
:104CC0001148124B1B1AB2EBD30F04D200EBC202F5
:104CD00053682B600EE00023FBE70028FBD003782D
:104CE000466843B121461046B0472368002B08BFF1
:104CF00000242C6070BD14235A43B118B358002B04
:104D000018BF0B46E5E700BF80CC0208A8CC02081C
:104D1000014A024904F006BFA3E002085DDB020875
:104D200059B1002981EAE172A2EBE172CCBF4123C3
:104D300042230249406904F0F5BE7047A7E002082B
:104D400059B1002981EAE172A2EBE172CCBF4323A1
:104D500044230249406904F0E5BE7047A7E0020819
:104D60002DE9F0410646054656F8084F04F11C00AF
:104D7000E28D218E04F0C3FD3046B4F82080678CAC
:104D800004F0DDFE18B10A49686904F0CBFEB845AD
:104D900007D1A18BE38B2846C91ABDE8F041FFF784
:104DA000CFBF618C238C2846C91AFFF7B9FFF0E703
:104DB0008AE00208826802494069343204F0B2BED7
:104DC0005DDB020870B504460D46164612B1406917
:104DD000FFF79EFFA268138E3433134420460C4A1B
:104DE000002104F06AFF204650F8083FDA8D1A8649
:104DF00004F0A5FE28B106B11DB10649606904F0B2
:104E000091FE6942204609B2BDE8704004F0BFBE81
:104E10005DDB02088AE0020813B583688DF807108D
:104E2000D3F83426D20704461DD5198EDA8D8A426E
:104E300019D0481C18860B449DF8072083F83420AD
:104E4000A368D3F834365B070BD56069094904F0D1
:104E500069FE204604F087FE18B10749606904F036
:104E600061FE02B010BD01220DF10701204604F0E1
:104E700032FFF6E7ABE002088AE0020883680A4ADC
:104E80001B6810B50446032104F017FFA368D3F88C
:104E900034365B0707D52046FFF78CFF2046BDE878
:104EA0001040FFF75DBF10BD5DDB020813B507487A
:104EB00002F0C2FA00240123014600941A46044875
:104EC000FFF702FE204602B010BD00BF12D6020856
:104ED000CCD00208406810B50C4601688B6063684E
:104EE000C1E900422BB19B6C1BB10246044920462C
:104EF000984763689B6A0BB120469847002010BD15
:104F0000399E02082DE9F043082385B00D46096853
:104F1000047C064605F0F2F868B90821204605F041
:104F200038F92968B38901448AB21B1A9A420746A4
:104F3000296003D0002005B0BDE8F0830B0C03BF4F
:104F4000F38903F1FF3301EB0341A1F580312960BF
:104F500008236A46304605F0D1F80028EBD16A46AE
:104F6000034612F8011BFF2924D10133082BF8D185
:104F700073682B60DFE7E41B2C6004EA03099846A2
:104F8000A145D7D208230DEB03022146304605F098
:104F9000B5F80028CFD102A805F0E6F840B9BDF871
:104FA0000A30BDF80C202C6009EA08091344994422
:104FB000E41BE5E7684605F0D7F82C68044B0028A9
:104FC000D9D11C40BDF802301C442C60B3E700BFAF
:104FD0000000FFFF2DE9F04F044693B00821007C4C
:104FE00005F0D7F863681B0C1B04814601A9E08912
:104FF000019305F0D7F8019BA18904AD1944A1EBF9
:1050000009012A4608232046029105F077F8021E7E
:1050100070DB0023EA5CFF2A70D10133082BF9D141
:105020000199204605F0EBF8024663E05645354607
:1050300028BF55460AAA2B463946204605F05EF899
:105040000246002856D135B10AAA2B46A16820464F
:1050500005F0FAF802462946207C05F09AF8A36884
:105060001844A060002A45D1AAEB050A2F4437E076
:10507000D945D5D006AA02A92046DDF808B0FFF729
:1050800041FF0246002835D16368039308AA03A9AB
:105090002046039DFFF736FF024658BBBDF820208F
:1050A000BDF818309A42F1D108A805F05DF8002843
:1050B000ECD1AB45DCD1BDF81C30002BD8D0BDF80D
:1050C0001A300BEA08071F4406A8A368ADF81A3087
:1050D00005F056F8267CBDF81CA0764206F02006A6
:1050E000BAF1000FA2D106A9204605F0F1F8024658
:1050F0000028BDD0104613B0BDE8F08F029B054AD2
:10510000BDF81210A3EB090913400B44029390461B
:10511000B0E700BF0000FFFF2DE9F04100F11406E9
:105120000D4686B00446304607F04EF8284602F099
:1051300083F9A062002800F0B18043681B7D2374CE
:10514000202B05D96FF01505284606B0BDE8F08183
:1051500003AA216806F091FB0028F3D1A289049BE1
:10516000B2FBF3F503FB1525002DEBD1E389012BF1
:10517000E8D94FF0FF313046009502F093FB08214B
:10518000207C05F006F80746E289ABB29A421AD9AC
:10519000A18901EB0541C91B08222046009105F0B9
:1051A0000BF828B96946E08904F0FCFF0135EBE70C
:1051B0006946E08904F0F6FF08220099204604F0D1
:1051C000FBFF0028EED100990822C91B2046009160
:1051D00004F0F2FF0028F6D1009961600B0C1B046B
:1051E000A360A3894FEA47088AB2A3EB08039A4257
:1051F00018D03944082301AA2046009104F07EFF0C
:105200000546002841D101A804F0AEFF50B9A068BE
:10521000BDF80620BDF808100244207C04F0B9FF58
:105220001044A060D4E90121521A0AD0204604F0AB
:10523000C3FF051E29DB04D0A368227C1344A360AE
:10524000F0E76368174FE0893B406946009304F03C
:10525000A9FFA2890099204604F0AEFF051E14DBC9
:1052600013D06168204604F0CAFF054668B9626839
:1052700002EA0703A2891344A3EB080363603B40DF
:10528000A3602046FFF7A6FE0546304602F07AFBF3
:10529000002D7FF459AF0123637455E76FF00505C6
:1052A00052E700BF0000FFFF70B586B00D4601A9B0
:1052B000064600F0A3F8044678BB019881681023E5
:1052C00002AA103905F039FA0446019805F034FABB
:1052D0001CBB1022134902A805F071FDD8B1DDE90D
:1052E00002231340049A1340059A134001330CBF64
:1052F000032402242C703146012005F02BF9041EF2
:105300000DDB6C703146002005F024F9041EA4BFAB
:10531000AC70002403E00124ECE7002CEADA20461C
:1053200006B070BD64D10208F7B502206946FFF7E8
:10533000BBFF10BB01A90420FFF7B6FFE8B99DF839
:1053400000109DF804409DF802509DF806609DF8FD
:1053500001700F4B1A780AB18A4212D15A780AB1F9
:10536000A2420ED19A780AB1AA420AD1DA780AB1D9
:10537000B24206D11A7912B9587903B0F0BDBA42D7
:10538000FAD00130032803F10603E3D10120F4E74A
:10539000D9E0020837B5054601A9042000F02EF82F
:1053A000044680B90198094A81681023103905F034
:1053B000E1F90446019805F0BFF924B91DB10420B4
:1053C00005F0DFF80446204603B030BD64D1020882
:1053D000084B30B51D68084B196800239D4202DC5C
:1053E0000022104630BD1C010A190C5D8442F8D021
:1053F0000133F3E7C4D10208CC940020084B1B68AA
:1054000010B50C462BB1FFF7E3FF28B12060002058
:1054100010BD6FF00C00FBE76FF00100F8E700BF74
:10542000CC94002008B504464FF01002EFF311832E
:1054300082F31188BFF36F8F00F04CFB204600F021
:105440004FFE034803F07BFE00F066FDFCE700BF63
:10545000FCE002080A2838B50446074D04D1286844
:1054600043680D215B68984728684368E1B25B6830
:105470009847204638BD00BF3C0B002010B5044CB7
:10548000204601F0A9FA2046BDE81040FEF7C4B955
:105490005554020808B5044801F0CEFF034B1860CC
:1054A000FFF7ECFF002008BD12D602083C0B0020DD
:1054B0002DE9F84395680D4E04460F464FF001085C
:1054C00005F10409BC4201DBBDE8F883726908FA02
:1054D00004F333EA020207D1736155F834301BB18B
:1054E00059F83410204698470134EBE7003C01405E
:1054F0001F2808B505DC164A0123116883400B43B9
:105500001360431F042B19D9A0F10A03052B17D9E7
:10551000042804D8063000F0A7FC002008BD10388D
:10552000062811D8DFE800F00E100410100608005D
:105530002A20F0E70220EEE70320ECE71720EAE755
:105540002820E8E70120E6E76FF02200E6E700BF49
:10555000003C0140CA0710B507D51F2805DC084BE1
:1055600001229C68824022439A608B0707D51F283E
:1055700005DC034A0123D16883400B43D36010BD8F
:10558000003C0140074930B58C6854F8301004EBFA
:10559000C00521B944F830206B60084630BD6FF07B
:1055A0000F00FBE78C9500200B6884B0032B2DD8EF
:1055B000DFE803F0020E1822164A4B68116B1943FC
:1055C0001163126B13400093009B002004B07047DE
:1055D000104A4B68516B19435163526B134001934E
:1055E000019BF2E70B4A4B68116C19431164126C72
:1055F00013400293029BE8E7064A4B68516C19433B
:105600005164526C13400393039BDEE76FF022005A
:10561000DCE700BF003802400B68032B20D8DFE82E
:1056200003F0020A1118104A4968136B23EA0103B8
:105630001363002070470C4A4968536B23EA010347
:105640005363F6E7084A4968136C23EA01031364BD
:10565000EFE7054A4968536C23EA01035364E8E71E
:105660006FF02200704700BF00380240074B096806
:105670001B68032907D8DFE801F0030302035B0876
:105680001360002070476FF0220070477C94002068
:1056900030B587B000234FF48052CDE90032029339
:1056A00000F038F803A805F025F9184B1A6891079F
:1056B00006D41A6842F001021A601A689207FCD5F3
:1056C000124CA36823F00303A360A36823F0F00344
:1056D000A360A56815F00C05FBD123680C4823F0E6
:1056E00080732360636823F0706343F080636360BA
:1056F00003AA6B462946FEF7ADF9236823F00103A0
:10570000236005F0FEF8284607B030BD003802409F
:10571000001BB700064B1A6C42F080521A641B6CD7
:1057200082B003F080530193019B02B0704700BF29
:105730000038024073B5044606090D46104612B9FA
:10574000114801F079FE00230093104B53F82630E6
:105750000193013302D16FF0040012E043686946FF
:105760001B6898470028F6D12011800200F1804084
:1057700005F00F032A4604F00F0100F5003005F094
:10578000B9FF02B070BD00BF30E10208C8D1020805
:10579000F8B5044609480E4601F04EFE00250746BE
:1057A000B54204F1080400D1F8BD3A4654F8041C8F
:1057B00014F8080CFFF7BEFF0135F1E730E10208ED
:1057C000024B4AF6AA221A600020704700300040BF
:1057D0002DE9F84F83688C681E684B684FF47A7522
:1057E0005D43002C43D12846FAF7ACFE2349DFF88D
:1057F0009CA0FAF7B3FF2249FAF7FCFE4FF0040B26
:105800008146E7B20BFA07F080B2FAF79FFE014635
:105810004846FAF7A3FF514680460134FBF7A6F845
:105820000028EED14046FBF7ABF8164B643D9D4295
:1058300000F1FF341ED8062F1CD8B4F5805F19D2B2
:1058400006F0D5FE0546F06810F0030007D10E4BB8
:1058500045F255521A607760B460BDE8F88F06F0E3
:10586000C6FE401B3028EED96FF01200F5E76FF04E
:105870002200F2E76FF01500EFE700BF0024744943
:105880000000FA469CFF8F010030004000F07F4589
:105890008B0741BF074A936843F48053936011F02C
:1058A000010003BF044B4CF6CC421A606FF022009B
:1058B000704700BF002004E00030004070B505468E
:1058C00080680E4650F8044B4FF0FF3102F094FB15
:1058D000A6B1284605F085F8064628B1A868043028
:1058E00002F05EFB304670BD236943F00043236144
:1058F000A868043002F054FB0026F3E72369002B6C
:10590000BFBF034B636003F188336360F0E700BF00
:1059100023016745024B0B6003231360704700BFF0
:105920001CD202080F4B30B51A6899681D680E4BDF
:105930001C680E4B12F48032186818BF224621F002
:105940007F41024408291A6007D915F4803F1A687C
:1059500014BF2046002002441A6018682044401AF0
:1059600030BD00BF10E000E0000C0020040C00205F
:1059700008B50D4A0D4B1268186810440C4A18609F
:1059800011680C4B401AB0FBF3F003FB00131360DB
:10599000094B1A68094B1A6000221A6002F006FDD2
:1059A000BDE8084000F09EB8000C0020FC0B002071
:1059B000F80B00200077010010E000E0040C00204C
:1059C000084B102283F82320074B084A1A60084B23
:1059D00000201860074B5A6098601A6842F007026E
:1059E0001A60704700ED00E0000C0020FF76010017
:1059F000040C002010E000E070B5204C51B1431CB5
:105A000008D11F4A136823F0010313604FF07F434E
:105A1000236070BD0138AD282BDC00282BDD194E2A
:105A200046434FF01003EFF3118583F31188BFF362
:105A30006F8FFFF777FF144B12491A6810441860F4
:105A4000124B1A68C2F5BB33FF3333440344101AB8
:105A5000B3FBF1F301FB03000D4B206000221A6041
:105A6000074B013858609A6085F31188BFF36F8F38
:105A7000CFE7AD20D3E741F27076D2E7000C0020EB
:105A800010E000E000770100FC0B0020F80B002084
:105A9000040C002010B54FF01003EFF3118483F3D2
:105AA0001188BFF36F8FFFF73DFF074B074A1B6855
:105AB00012689B1A184484F31188BFF36F8F044B4C
:105AC000B0FBF3F010BD00BFFC0B0020F80B002072
:105AD00000770100024A136823F001031360704746
